:100000000C945F010C94A6010C94A6010C94A6011B
:100010000C94A6010C94A6010C94A6010C94A601C4
:100020000C94A6010C94A6010C94181C0C94F11CC1
:100030000C94092C0C94A6010C94A6010C94A60116
:100040000C94A6010C94A6010C94A6010C94A60194
:100050000C94A6010C94C22B0C94A6010C94A6013E
:100060000C94A6010C94D7120C94A6010C94A60132
:100070000C94A6010C94A6010C94A6010C94A60164
:100080000C94A6010C94A6010C94A6010C94A60154
:100090000C9427060C94A6010C94A6010C94A601BE
:1000A0000C94A6010C94A6010C94A6016B02890283
:1000B000B002B002B002B002B002B00290029802E8
:1000C0009B029E02A102A402A702F402F602F80219
:1000D000FA02FC02020307030B030D0312031603CB
:1000E0001A033A09440944094D094D096C096C0980
:1000F000800980092D122F12311233123312361259
:10010000361239123B123D123D1240124012431278
:100110004312431243124612461246124612491225
:100120004912591D7C1D371E7C1D371EC11DE41D43
:10013000371E061E191EF121F121202220227E22C7
:10014000E222042504250423042505240524D824BB
:1001500004250425EF24014E024E00014D024D00FE
:10016000014B024B00014A024A0029141A081517D4
:100170001C180C12132A2B041607090A0B0D0E0F5C
:100180003328791D1B06190511103637387D787B09
:100190007A657C2C2C7E5051524F20001021011189
:1001A00022021223031324041425051528081829F4
:1001B00009192A0A1A2B0B1B2C0C1C2D0D1DB09093
:1001C000A0B191A1B292A2B393A3B494A4B595A502
:1001D000B898A8B999A9BA9AAABB9BABBC9CACBD6C
:1001E0009DAD50304051314152324253334354342B
:1001F000445535455838485939495A3A4A5B3B4B7A
:100200005C3C4C5D3D4D80607081617182627283A7
:1002100063738464748565758969798A6A7A8B6B7E
:100220007B8C6C7C8D6D7D00000000010101020261
:10023000030405050607090A0B0C0E0F111214150D
:1002400017191B1D1F212325282A2C2F313436393D
:100250003B3E414346494C4F5255585A5D61646795
:100260006A6D707376797C7F8386898C8F9295987E
:100270009B9EA2A5A7AAADB0B3B6B9BCBEC1C4C669
:10028000C9CBCED0D3D5D7DADCDEE0E2E4E6E8EACB
:10029000EBEDEEF0F1F3F4F5F6F8F9FAFAFBFCFD0C
:1002A000FDFEFEFEFFFFFF016202620162026200CC
:1002B000012802280001E30115021502E3001124C0
:1002C0001FBECFEFDAE0DEBFCDBF04B603FE27C00E
:1002D0008091240A9091250AA091260AB091270ABC
:1002E0008730904BA740B04BD1F41092240A109263
:1002F000250A1092260A1092270A14BE84B7877F17
:1003000084BF0FB6F894A8958091600088618093AF
:100310006000109260000FBEE0E0FEE3099515E07A
:10032000A0E0B1E0ECE0FCE602C005900D92AC3537
:10033000B107D9F72AE0ACE5B5E001C01D92A432BF
:10034000B207E1F70E9470170C9404360C94000079
:10035000CF93C82FCB010E946C2C282F30E080E176
:10036000989FA0011124422B532B4038510519F4BA
:1003700080E090E021C09770E92FF0E088E0C89F0E
:10038000E00DF11D112484E0EE0FFF1F8A95E1F7C7
:10039000E20FF31FEE0FFF1FE050FC482591349150
:1003A000C9018B7F833E910531F4809161058823DB
:1003B00011F020E030E0C901CF910895EF92FF9253
:1003C0000F931F93CF937C01062FC42F613029F028
:1003D000A8F0643009F45CC06EC0FC0182818823FF
:1003E00009F453C00E94E52A81FF06C00E94E52A55
:1003F00080FD02C085E342C089E240C0423009F17D
:1004000048F4442389F0413061F584E380935E052C
:1004100088E225C04430F9F0C8F0453011F581E399
:1004200080935E058AE21BC00E94E52A82FF02C01B
:100430008DE301C089E280935F0585E380935E05CB
:1004400010C088E380935E0587E309C088E380934A
:100450005E0582E504C083E380935E058FE08093B0
:100460005F05F7018281882381F00E94E52A85FFDC
:1004700003C080915E0502C080915F058093600596
:10048000809160050E94962014C0809160050FC085
:10049000FC018281882351F00E94E52A81FD0BC076
:1004A0000E94E52A85FD07C08CE2ECCF8CE20E9419
:1004B00008210E94222BF7018281882309F450C071
:1004C00010E0F8013297EF30F10508F049C0EA5A20
:1004D000FF4F0C9408320E94E52A80FF05C085E09A
:1004E00090E00E94141708C00E94E52A8C7021F049
:1004F00089E291E00E9471138FEF0E9434218FEF07
:100500000E943B21CF911F910F91FF90EF900C948F
:1005100054219091610581E089278093610520C075
:100520008C2FCF911F910F91FF90EF900C940709A2
:1005300088E190E00EC083E190E00BC082E190E0A2
:1005400008C08CE090E005C085E190E002C080EC3E
:1005500090E0CF911F910F91FF90EF900C941417A2
:10056000CF911F910F91FF90EF900895662319F09E
:100570006130C1F027C0FC018281882339F00E94DC
:10058000542B90935D0580935C051CC080915C05A5
:1005900090915D050E946C2B893C9105B4F480E636
:1005A00091E00895FC0182818111E9CF80915C0581
:1005B00090915D050E946C2B893C91054CF486E579
:1005C00091E0089580E090E0089585E691E0089537
:1005D0008BE591E0089590E08C30910590F5FC0159
:1005E000EB59FF4F0C94083283B11DC083B116C084
:1005F00083B121C086B11FC086B18095881F88272E
:10060000881F08958CB182FB882780F917C08FB1AD
:100610008095817008958FB10EC08FB185FB8827BA
:1006200080F90CC08FB18295817008C08FB186951A
:10063000817004C08CB186FB882780F991E08927FE
:10064000089580E00895E82FF0E0EE0FFF1FE756D1
:10065000FA4F80819181089508958798579884B1C1
:10066000837F84B908950F931F93CF93DF9385B74A
:10067000806885BF85B7806885BF0E94B6055C9A93
:10068000549A80E590E00E945B050E94B2080E94A7
:100690004B2B8FEC97E00197F1F700C000000E9410
:1006A000542B90936505809364050E942D0380B3BD
:1006B0008C7880BB81B3836781BB8EB184648EB933
:1006C0008DB18B7B8DB987B18F7387B988B1806C01
:1006D00088B984B18F7884B985B1806785B909E913
:1006E00015E0C6E6D5E0F801119211928F01109243
:1006F00098050E94542B909397058093960580E06F
:1007000090E0FE01E80FF91F108201968C309105F0
:10071000C1F72C96F5E0C639DF0729F7DF91CF91B5
:100720001F910F910895DF92EF92FF920F931F9305
:10073000CF93DF938091980581110AC0809196052F
:10074000909197050E946C2B9093630580936205AE
:100750008091620590916305892B09F487C080918F
:100760009805811106C00E94542B909397058093A1
:10077000960580919805813049F030F0823041F043
:10078000833039F4239A05C0879A03C0579A01C071
:10079000229A80E58A95F1F700E010E05CE0D52E22
:1007A000EE24E394F12CC0919805D0E0802F0E94B4
:1007B000EB0220916205DC9EF001DD9EF00D11241C
:1007C000E00FF11FEA59FA4F9081990F982B2150B1
:1007D000E1F7DC9EF001DD9EF00D1124E00FF11F2A
:1007E000EA59FA4F90839701002E02C0220F331F5F
:1007F0000A94E2F79F3099F040F4913081F0E8F0EC
:10080000933069F0973051F50AC09F3341F018F4E6
:100810009F3121F504C09F3711F09F3FF9F4CC0FB1
:10082000DD1FC756DA4F88819981A90148235923D2
:10083000452BA1F4282B392B0FC0CC0FDD1FC75639
:10084000DA4F88819981A90148235923452B31F03A
:100850002095309528233923398328830F5F1F4F34
:100860000C30110509F09FCF0E942D03E0919805EF
:10087000F0E0EE0FFF1FE756FA4F80819181892B40
:1008800051F00E94602B60930308709304088093DA
:10089000050890930608809198058F5F843018F4BE
:1008A0008093980502C01092980581E0DF91CF9166
:1008B0001F910F91FF90EF90DF900895879A579ABC
:1008C00084B18C6084B908950F931F93CF93DF9305
:1008D000809112018A30A1F5579800E010E0C0E045
:1008E000D0E0802F0E94EB0290E0002E02C0880F23
:1008F000991F0A94E2F7C82BD92B0F5F1F4F0C30BA
:10090000110579F72097D1F40E942D03579A00E042
:1009100010E0802F0E94EB0290E0002E02C0880FB2
:10092000991F0A94E2F7C82BD92B0F5F1F4F0C3089
:10093000110579F781E0C039D10569F080E00BC07D
:10094000C0E08C2F0E94EB02811104C0CF5FCC303D
:10095000C1F7F4CF81E0DF91CF911F910F910895FE
:100960000895089508958091500980FF08C08E73FE
:10097000883029F42F9A5C9881E080937506089559
:1009800008952BB1342F309523233BB1432B3FB730
:10099000F894FC01680F791FE617F707E1F08191E1
:1009A00098E04BB987FF2BB9880F000000C02BB926
:1009B000000000C000C000C000C000C000C000C0F7
:1009C00000C000C000C000C000C000C000C000C027
:1009D0009A9539F7E1CF3FBF08952AB1242B2AB960
:1009E0009B01220F331F620F731F0E94C10485E811
:1009F0008A95F1F70000089540E40C94ED04880F07
:100A000080933A0960933B0940933C0988EF8093B7
:100A10001E0980911E098F3F39F040E063E08AE3B0
:100A200099E00E94CC05F5CF0895CF93DF93C82FAE
:100A3000D62F45EC6EEF0E94FF044D2F6DEF8C2FEB
:100A4000DF91CF910C94FF040F931F93CF93DF930B
:100A5000C82F8B0161E070E090E00E941505CC0F7B
:100A6000C0933A09E80110E008EF10933B0980E0D9
:100A700090E0FE01E80FF91F2081FC01E65CF64FD3
:100A80002283019680319105A1F700931E09809180
:100A90001E098F3F39F040E062E18AE399E00E944D
:100AA000CC05F5CF105F6096103CF9F6DF91CF9141
:100AB0001F910F910895CF93DF93C82F63E00E9499
:100AC000150540E060E08C2F0E94FF0441E060E0EB
:100AD0008C2F0E94FF0440EC61E08C2F0E94FF04E9
:100AE0008FE19EE40197F1F700C0000060E08C2FD9
:100AF0000E941505D0E04FE36D2F8C2F0E94FF045C
:100B0000DF5FD931C1F7DF91CF910895803308F5C8
:100B100090E0FC01EE0FFF1F8E0F9F1FFC01E656B9
:100B2000FE4FE491F0E0EF55FA4F6083FC01E5568B
:100B3000FE4FE491F0E0EF55FA4F4083FC01E4569C
:100B4000FE4FE491F0E0EF55FA4F208381E080936F
:100B50006106089580916106882339F0109261063C
:100B600061EA75E080E50C9424050895EDE1F9E073
:100B700010828FEF818312821092B90082E08093FD
:100B8000B80085E08093BC00089590911D099D7F79
:100B900081E009F080E008951F93CF93DF9300D0A8
:100BA0001F92CDB7DEB7182F653110F081E048C035
:100BB0004A8369839B830E94C5054A8169819B8121
:100BC000811105C082E08A95F1F700C0F1CF409312
:100BD0001F09E12FF92FA2E2B9E070E0CD018252A6
:100BE0009940861797071CF481918D93F7CF7093E6
:100BF0004F0960934E0910922109109220098091AB
:100C00001D098230B1F481E080931D098091200993
:100C1000909121099C012F5F3F4F30932109209330
:100C20002009FC01EE5DF64F80818093BB0085E8D2
:100C300004C081E080931D0985EA8093BC0080E0B8
:100C40000F900F900F90DF91CF911F9108951F92F9
:100C50000F920FB60F9211242F933F934F938F93C0
:100C60009F93EF93FF938091B900887F883239F189
:100C700080F4803109F49FC030F4882309F49FC0C8
:100C80008830E9F0A3C08831B9F0803209F480C01F
:100C90009DC0803491F138F4803309F479C08833F1
:100CA00009F476C093C08035A9F1883509F455C0A0
:100CB000883409F08BC06CC083E080931D092091BB
:100CC00020093091210980914E0990914F092817F0
:100CD00039070CF053C080912009909121099C01A3
:100CE0002F5F3F4F3093210920932009FC01EE5DD7
:100CF000F64F80818093BB002BC084E080931D0958
:100D000080913609909137090197209138093091E7
:100D1000390916C080913809909139099C012F5FDB
:100D20003F4F30933909209338094091BB00FC01B3
:100D3000E75FF64F4083809136099091370901971C
:100D4000281739072CF488EF80931E0985EC3CC0E6
:100D500088EF80931E0985E837C08091380990910B
:100D600039099C012F5F3F4F30933909209338098F
:100D70002091BB00FC01E75FF64F208380911F09A3
:100D8000882311F08FEF0BC010921D098FEF10C058
:100D900080911F09882339F08091B900887F809362
:100DA0001E0985EA11C010921D098091B900887F43
:100DB00080931E0908C082E080931D0907C010922D
:100DC0001E0910921D0985E98093BC00FF91EF91E7
:100DD0009F918F914F913F912F910F900FBE0F9048
:100DE0001F901895CF93DF9300D000D01F92CDB7FE
:100DF000DEB7FA0193E0899F90011124232F330F6E
:100E0000330B1C821982982F990F890F8150869F6E
:100E1000C00111249D839A83691B6B83DE01A20F9D
:100E2000B31F13968C918183DE01A20FB31F12961C
:100E30008C918083DE01A20FB31F11968C91828367
:100E40000F900F900F900F900F90DF91CF9108951A
:100E50000F931F93CF93C82FE62F862F90E08C0F10
:100E6000911D840F911D83329240D4F0A5E0CA9F5A
:100E7000C001112407E010E0B8010E94F431C62F30
:100E8000B5E0EB9FC0011124B8010E94F431E62FB8
:100E9000F5E04F9FC0011124B8010E94F431462FA4
:100EA000D9011196CC931197EC9312964C93CF9154
:100EB0001F910F9108950F931F93CF93DF9300D04D
:100EC00000D01F92CDB7DEB770E0869FF001879FFC
:100ED000F00D1124EF2FFF27042F10E0E09FD00129
:100EE000E19FB00DF09FB00D1124E0E0F1E0E61BB2
:100EF000F70BE09FB001E19F700DF09F700D112482
:100F00007C837983872F8B0F8D838A834B1B4B8345
:100F1000892F90E063E070E00E94E031DE01A80FCD
:100F2000B91FFD0111964C91628183810F900F9042
:100F30000F900F900F90DF91CF911F910F910C9414
:100F400028078AE090E00C942A35AB01BC018AE0C6
:100F500090E00C944835E0E5F9E089E1808380EA8F
:100F6000809351098FEF8283838360915009709140
:100F7000510980915209909153090C94A5078DE86D
:100F8000EAE6F9E0DF011D928A95E9F782E1E8E5FA
:100F9000F9E0DF011D928A95E9F708951F93CF9339
:100FA000DF938091500980FF0E94BF07CCE6D9E013
:100FB00010E0DE011297FE01319728814C9160818B
:100FC000812F0E9486051F5F23961F3291F766E0EE
:100FD00070E088E599E0DF91CF911F910C94FC04BB
:100FE0002091500920FF1DC027EF39E00E945B07C8
:100FF000AAE6B9E0E8E5F9E080E02091F709309150
:10100000F8094091F909863018F42083318342832E
:101010002D933D934D938F5F33968F3271F70C94E0
:10102000CE0708950F931F93CF93DF93209150091C
:1010300020FF2FC0142F062FC92FD82F2E73223038
:1010400011F40E94F0079D2F9295990F990F907CB3
:10105000809150098F73892B80935009C295CC0FD2
:10106000CC0FC07CD695D695CD2BC093510900935B
:101070005209109353096091500970915109809160
:10108000520990915309DF91CF911F910F910C94C8
:10109000A507DF91CF911F910F910895CF93909164
:1010A000500990FF5DC0917C811102C0906308C01F
:1010B000893110F0926004C0282F2F71220F922BDB
:1010C00090935009C82F60915009709151098091F7
:1010D0005209909153090E94A50780915009869565
:1010E0008F7111F02F9A5C9880915009982F9E7300
:1010F0009230B9F4829586958695837090915109C6
:10110000292F220F220F4091530960915209822BFF
:1011100092959695969593700E941208CF910C9493
:10112000CE07C23051F48FE2E6EBF6E0DF011D920C
:101130008A95E9F7CF910C94BF07C43059F46091B8
:10114000DB087091DC088091DD089091DE08CF917A
:101150000C94B30487EF8C0F823010F41092760653
:10116000CF9108950E94A430811104C00E948A305A
:101170000E94AB070E94A107609350097093510928
:1011800080935209909353096E736E3361F40E94F9
:10119000AB070E94A1076093500970935109809397
:1011A000520990935309279A549A8091500980FFCD
:1011B00004C086958F710C944E080E94CE072F981C
:1011C0005C9A089580915009982F909590FB80F932
:1011D0008093500960915009709151098091520992
:1011E000909153090E94A5078091500980FF04C087
:1011F00086958F710C944E080E94BF070E94CE07FF
:1012000080911B0A843011F02F985C9A0895CF9238
:10121000DF92EF92FF920F931F93CF93DF93C82E2D
:10122000D0915009D295D695D695D370D0905109CA
:101230008D2D880F880FD82BD294D694D69493E016
:10124000D922E090520940915309042FC0FE02C0F8
:10125000CFEF01C0C1E00E94E52A81FDC1954C2D70
:1012600050E04930510508F05EC0FA01EF58FF4FD9
:101270000C940832DF91CF911F910F91FF90EF9066
:10128000DF90CF900C94E208909150099695892FA9
:101290008F718C0F0E944E0846C0209150092295F4
:1012A00026952695237030915109432F440F440F02
:1012B000842F822B932F92959695969593709D5F90
:1012C00024E1C202800D911D112460E073E00E94B0
:1012D000F431D82FD92E2AC08091520991E1C90248
:1012E00070011124E80EF11C2FEFE216F10409F051
:1012F0001CF4F7FC29C01AC0EE24EA94F12C16C0A5
:101300008091530991E1C902A00111248A01080FBB
:10131000111D0F3F110509F01CF417FD18C006C080
:101320000FEF10E003C022E02C15A0F4402F6E2D2B
:101330008D2F9D2DDF91CF911F910F91FF90EF90F9
:10134000DF90CF900C941208E12CF12CEFCF00E04D
:1013500010E0ECCFDF91CF911F910F91FF90EF90B4
:10136000DF90CF900895CF93DF93C82FD62F262FED
:1013700030E0280F311D240F311D23323240D4F0CC
:1013800025E0829FC001112427E030E0B9010E94CE
:10139000F431C62F55E0D59FC0011124B9010E9438
:1013A000F431D62F55E0459FC0011124B9010E94A8
:1013B000F431462F20E030E0F901E85AF64FC183BE
:1013C000D08342832D5F3F4F22313105A9F720E0C2
:1013D00030E0F901E659F64FC183D08342832D5F97
:1013E0003F4F2D383105A9F7DF91CF910C94CE07EF
:1013F000BF92CF92DF92EF92FF920F931F93CF9302
:10140000DF93CDB7DEB729970FB6F894DEBF0FBED6
:10141000CDBFE22F2983F32F3A834B835C836D8307
:101420007E838F8398879F010B811C81203309F075
:101430005EC0313099F4D8018C9129960FB6F8949A
:10144000DEBF0FBECDBFDF91CF911F910F91FF90F7
:10145000EF90DF90CF90BF900C940709323099F451
:10146000F801808129960FB6F894DEBF0FBECDBF7C
:10147000DF91CF911F910F91FF90EF90DF90CF9070
:10148000BF900C944E083330C9F4D80112964C9199
:10149000129711966C9111978C9129960FB6F8942A
:1014A000DEBF0FBECDBFDF91CF911F910F91FF9097
:1014B000EF90DF90CF90BF900C94B309343009F0D7
:1014C0006CC0F801238142816181808129960FB629
:1014D000F894DEBF0FBECDBFDF91CF911F910F916A
:1014E000FF90EF90DF90CF90BF900C948605213352
:1014F00009F053C0332309F450C06AE371E08AEF66
:1015000099E039870E948232B02E78010AEF19E003
:1015100089E4C82E81E0D82E39858E2D8B1983174A
:10152000F8F4F80101900020E9F73197EA5FF940FB
:10153000E0937406D7018D917D011F928F93DF9206
:10154000CF92FF27E650F64FFF93EF9339870E9423
:1015500089320F900F900F900F900F900F90DCCF6B
:1015600062E173E08AEF99E00E9477328AEF99E0B6
:101570000E945F1384E690E029960FB6F894DEBFD0
:101580000FBECDBFDF91CF911F910F91FF90EF90D4
:10159000DF90CF90BF900C94241329960FB6F89447
:1015A000DEBF0FBECDBFDF91CF911F910F91FF9096
:1015B000EF90DF90CF90BF9008950F931F93CF933C
:1015C0009091500990FF65C0C62F9E73943009F525
:1015D0002F9906C09091FD07911102C02F9A5C9837
:1015E0009CE0899FF0011124EC0FF11DEE5AFE4F93
:1015F000008110E0F801EA54F94F8EE780830E94E1
:101600005A32F801EA57F94F60E071E00E94F43174
:101610008083809150098E738630D9F52F9906C04A
:101620008091FD07811102C02F9A5C982091770666
:10163000822F90E0019683709927FC01E458F94FBE
:1016400030813E3F7CF4FC01E858F94F80818E30B8
:101650004CF081E0820F843018F48093770602C04A
:10166000109277068091770690E0FC01E858F94FD8
:10167000C083FC01E458F94FC0830E945A32E091C4
:101680007706F0E0EA57F94F60E071E00E94F4312C
:101690008083CF911F910F910895CF93C82FE09130
:1016A0007306F0E0E95DFD4F449180915009829509
:1016B00086958695837090915109292F220F220FCC
:1016C00060915209822B92959695969593700E94FF
:1016D000F0073091070120917306C39F200D11245C
:1016E000209373062C1738F08C2F90E0820F911DF9
:1016F0008F3791051CF0319530930701CF910895F4
:10170000DF92EF92FF920F931F93CF93DF9326E820
:10171000E22E26E0F22E0AE619E0C6EBD6E080E0E3
:10172000DC2E9FE2D90EE881E23068F0F0E0E95D5E
:10173000FD4F6491A801F70180810E94F206888123
:101740008250888381E02196FFEFEF1AFF0A0D5F38
:101750001F4FDC12E8CF9CE4E92E91E0F92E08E55A
:1017600019E0C0E8D6E0DC2EE6E0DE0EE881E230EB
:1017700068F0F0E0E95DFD4F6491A801F701808118
:101780000E94F20688818250888381E02196FFEFD3
:10179000EF1AFF0A0D5F1F4FDC12E8CF81110BC05B
:1017A000809150098E73843031F480911B0A84300B
:1017B00011F02F985C9ADF91CF911F910F91FF90BC
:1017C000EF90DF900C94CE07DF92EF92FF920F9391
:1017D0001F93CF93DF93809172068F5F823018F44E
:1017E0008093720692C0109272060E94BF0706E8AC
:1017F00016E0B8E7EB2EB6E0FB2ECCE7D6E0DC2E09
:1018000084E0D80E47EF59E06FEFF80181918F0126
:101810000E94F20628812E3F3CF140E050E0622F0A
:10182000022E000C770B27FD18C0FA01E60FF71FF8
:10183000EE5AFE4F808190E0FC01EE0FFF1F8E0FED
:101840009F1FFC01E659F64F8091F7099091F80926
:10185000A091F90980839183A283445F5F4F403355
:10186000510509F721502883F70120812E3044F5D6
:1018700040E050E0622F022E000C770B2C30C4F4B5
:10188000FA01E60FF71FEE5AFE4F808190E0FC014F
:10189000EE0FFF1F8E0F9F1FFC01E659F64F809140
:1018A000F7099091F809A091F90980839183A283A7
:1018B000445F5F4F4033510509F72F5FF7012083E5
:1018C0002196FFEFEF1AFF0ADC129CCF809177067A
:1018D00090E0FC01E458F94F20812E3F6CF4FC01AC
:1018E000E858F94F80818E303CF080911B0A84309B
:1018F00019F02F985C9A09C0DF91CF911F910F9139
:10190000FF90EF90DF900C94CE07DF91CF911F9165
:101910000F91FF90EF90DF900895EF92FF920F9359
:101920001F93CF93DF930E94BF0780917506882392
:1019300009F483C0109275068091DB089091DC0851
:10194000A091DD08B091DE0827E030E0022FAC0165
:10195000BD01022E04C076956795579547950A9468
:10196000D2F7452B462B472B51F0273061F427EF58
:1019700039E046EB66EB86EB0E94280711C0215048
:10198000310921F752C0C901019727EF39E04FEF24
:101990006FEF9695982F8827979587950E945B07FC
:1019A00092E5E92E91E0F92E10E0C0E0D0E06C2F36
:1019B000712F802F0E94A8010297B0F0F701EC0F61
:1019C000FD1F208130E0F901EE0FFF1F2E0F3F1F9A
:1019D000F901E659F64F8091F7099091F809A09125
:1019E000F90980839183A2832196CC30D105F9F641
:1019F0001F5F8CE0E80EF11C1430B9F6E8E5F9E061
:101A00008091F7099091F809A091F9098193919338
:101A1000A19389E0EA36F80799F7DF91CF911F91FA
:101A20000F91FF90EF900C94CE070E94CE0780910B
:101A30001B0A843011F02F985C9ADF91CF911F918F
:101A40000F91FF90EF900895CF93DF93209171064F
:101A50002F5F422F50E090E0880F991F8417950761
:101A60001CF0209371062CC0109271060E945A320D
:101A7000EC010E945A326CE070E00E94F431282F91
:101A8000CE0164E070E00E94F4319CE0899FF00197
:101A90001124E20FF11DEE5AFE4FC081D0E0FE018D
:101AA000EA54F94F8081823058F48EE780830E9497
:101AB0005A32CA57D94F60E071E00E94F4318883EE
:101AC000DF91CF910C94800BDF92EF92FF920F93F6
:101AD0001F93CF93DF93909170069F5F9093700652
:101AE000891708F086C00E94BF070E945A326CE036
:101AF00070E00E94F431EC01DD27FE01EA54F94F59
:101B0000808181110DC085E080830E945A32CA57BE
:101B1000D94F60E071E00E94F43188831092700622
:101B200006EB16E0C0E0D0E054E0E52E65E0D62EEE
:101B30007CE0F72EF8018081882309F44AC047EF42
:101B400059E06FEFFE01EA57F94F80810E94F206DB
:101B5000F80120818E2D821B8430D0F4FE01F89E86
:101B6000E00DF11D1124EE5AFE4F808190E0FC0142
:101B7000EE0FFF1F8E0F9F1FFC01E659F64F80915D
:101B8000F7099091F809A091F90980839183A283C4
:101B90008D2D821B8430D0F4FE01F89EE00DF11DE6
:101BA0001124EE5AFE4F808190E0FC01EE0FFF1FE2
:101BB0008E0F9F1FFC01E659F64F8091F709909117
:101BC000F809A091F90980839183A2832150F8013B
:101BD000208321960F5F1F4FCC30D10509F0AACF8B
:101BE000DF91CF911F910F91FF90EF90DF900C94B8
:101BF000CE07DF91CF911F910F91FF90EF90DF9073
:101C000008959F92AF92BF92CF92DF92EF92FF9290
:101C10000F931F93CF93DF9380916F068F5F809315
:101C20006F06882309F4B6C08DE8EAE6F9E0DF0123
:101C30001D928A95E9F780917606882341F080917C
:101C40006E06882369F1815080936E06A3C084E0FC
:101C50008093760684E180936E0606E816E0C6EB74
:101C6000D6E06EE0962EA12CBB24B394E8E5CE2EF0
:101C7000E9E0DE2EF2E1EF2EFC2EB4E0FB0E9992AD
:101C80000E945A32B5010E94F431F80181938F010C
:101C9000D601EE2D1D92EA95E9F7FC12F0CFCFCFD9
:101CA00046EBE42E46E0F42EC0E0D0E05CE0D52E1A
:101CB00004E010E0CC2ED7018C918F3018F01092F8
:101CC000760668C0882309F450C047EF59E06FEFEB
:101CD000FE01EA57F94F80810E94F2062CE0DC9E5B
:101CE000A001DD9E500D1124F7018081F22FF81B19
:101CF0008F2FFC30C0F4FA01E80FF11DEE5AFE4FB1
:101D0000808190E0FC01EE0FFF1F8E0F9F1FFC01F2
:101D1000E659F64F8091F7099091F809A091F909D9
:101D200080839183A2832F5F2F30F1F60E945A3275
:101D30005C010E945A329C01C501B8010E94F43135
:101D4000C81699F0C901B8010E94F431C81669F0AB
:101D5000D7018C9181508C93811107C080917606B8
:101D6000882319F08150809376062196BFEFEB1AF5
:101D7000FB0AC430D10509F09DCFDF91CF911F91AF
:101D80000F91FF90EF90DF90CF90BF90AF909F901A
:101D90000C94CE07DF91CF911F910F91FF90EF90A0
:101DA000DF90CF90BF90AF909F9008952F923F9279
:101DB0004F925F926F927F928F929F92AF92BF925B
:101DC000CF92DF92EF92FF920F931F93CF93DF9307
:101DD000CDB7DEB72A970FB6F894DEBF0FBECDBFE2
:101DE00080916D068F5F80936D06882309F429C169
:101DF000809176068823E9F10E945A3204E010E0CF
:101E0000B8010E94F4314C010E945A32B8010E947C
:101E1000F4315C010E945A32B8010E94F4316C0125
:101E20000E945A32B8010E94F43108E716E0B2E588
:101E30006B2EB1E07B2E2CE736E03A872987E12C28
:101E4000F12C412C23E0522EF401FF27FA83E98381
:101E5000950133273C832B83FC01FF27FE83ED8311
:101E60003CE0832E9601332738872F834BE0242EC6
:101E700015C084E08093760610927C068BE08093F8
:101E8000780610927D068093790610927E068093E4
:101E90007A0610927F0680937B06AECF89859A855D
:101EA0008C5796406C01E985FA853080F801908066
:101EB0009314ECF420E030E0F301E20FF31F818192
:101EC00090E0FC01EE0FFF1F8E0F9F1FFC01E659F3
:101ED000F64F1082118212822F5F3F4F2A30310558
:101EE00059F7E985FA851082F80120827DC020919A
:101EF0005009229526952695237030915109432F3C
:101F0000440F440F842F822B932F9295969596958C
:101F100093708E0D9F1DB2010E94F4315C012981E6
:101F20003A81C216D30661F18F819885C816D90609
:101F300039F137FC25C08C9CF0018D9CF00D1124EB
:101F4000E30DF11D37FCFA95EE5AFE4F208130E08B
:101F5000C901880F991F280F391F2659364F4FEF97
:101F600060915209C5010E945B0781E0830DE985FC
:101F7000FA8580838F3024F0109276060E94BF0786
:101F80002B813C81C216D30679F18D819E81C816C2
:101F9000D90651F1191444F5C501845D9E4F8C9CFE
:101FA000F0018D9CF00D1124E90DF11D97FCFA95BF
:101FB000EE5AFE4F208130E0A901440F551F240F37
:101FC000351F2659364FB2010E94E0314FEF609124
:101FD00052090E945B079A94F8019082911004C004
:101FE000109276060E94BF0729853A852F5F3F4FE2
:101FF0003A8729870F5F1F4F30E8E30EF11C8CE012
:10200000680E711CE11492E0F90609F047CF2A9698
:102010000FB6F894DEBF0FBECDBFDF91CF911F91F9
:102020000F91FF90EF90DF90CF90BF90AF909F9077
:102030008F907F906F905F904F903F902F900C9477
:10204000CE072A960FB6F894DEBF0FBECDBFDF9144
:10205000CF911F910F91FF90EF90DF90CF90BF90A5
:10206000AF909F908F907F906F905F904F903F9038
:102070002F900895CF93C82FE0E5F9E04381628166
:1020800080916B0690916C060E94F00720916B0680
:1020900030916C06C90143E0C49F800D911D11244D
:1020A00060E073E00E94E03190936C0680936B06D1
:1020B000CF9108956F927F928F92AF92BF92CF92FD
:1020C000DF92EF92FF920F931F93CF93DF93D82F5E
:1020D000C82FC695E2E5CE2EE1E0DE2E8601E12C8A
:1020E000F12CA12CF3E0BF2E8091690690916A0635
:1020F0008E0D9F1DB5010E94E03127EF39E0409120
:102100005309609152090E945B0780E090E0F8015A
:10211000E80FF91F208130E0F901EE0FFF1F2E0FAD
:102120003F1FF901E659F64F2091F7093091F80960
:102130004091F9092083318342830C9680339105C5
:1021400031F7802F8C1969F08B3069F080E3E80E4D
:10215000F11C0F5F1F4F80E4E81682E0F80621F6BD
:1021600021C080E001C083E0482F50E04E5F5F4F08
:10217000282F082E000C330B421753073CF3F901AC
:10218000EE0FFF1F2E0F3F1FF901E85AF64F609028
:10219000F7097090F8098090F90960827182828253
:1021A0008F5FE6CF0E94CE072091690630916A06C4
:1021B0004C2F50E0D0FF09C0CA0144E0880F991F9E
:1021C0004A95E1F7820F931F09C0C9019D5F24E082
:1021D000440F551F2A95E1F7841B950B60E073E0CF
:1021E0000E94E03190936A0680936906DF91CF9157
:1021F0001F910F91FF90EF90DF90CF90BF90AF9025
:102200008F907F906F900895CF92DF92EF92FF9220
:102210000F931F93CF93DF93909168069F5F282FB2
:102220002695291758F090936806DF91CF911F915A
:102230000F91FF90EF90DF90CF900895C82F1092EC
:1022400068060E94BF07C0FF03C0FF24FA9402C0C3
:10225000FF24F39456E0D52EE12C00E310E0C0E01B
:10226000D3E0C090060197013203C00111248C0D08
:10227000911DC7FC9A95C096B8010E94F431FC01EB
:10228000EE5AFE4F208130E0C901880F991F280FB8
:10229000391F2659364F809150098295869586952B
:1022A000837090915109692F660F660F462F482B56
:1022B000592F5295569556955370CA0162E3E69E82
:1022C000800D911D1124BE010E94F43140915309EB
:1022D000609152090E945B07E394DA94D110C1CF58
:1022E0008C2D8F0D81331CF01092060104C087FDE8
:1022F00080E380930601DF91CF911F910F91FF90B2
:10230000EF90DF90CF900C94CE07CF92DF92EF92B8
:10231000909167069F5F891718F09093670687C0B2
:10232000109267060E94BF0740E050E080E02091D5
:102330000501BA01620F711D27FD7A956C30710598
:1023400008F047C0240F60E070E0A22FB0E0FB016E
:10235000EA0FFB1FEE5AFE4F808190E0FC01EE0F6A
:10236000FF1F8E0F9F1FFC01E659F64FC090F70923
:10237000D090F809E090F909C082D182E282645FCE
:102380007F4F6033710519F7222321F02B3021F0A4
:1023900081E01FC080E001C083E0682F70E06E5FC5
:1023A0007F4F282F30E06217730794F3F901EE0F87
:1023B000FF1F2E0F3F1FF901E85AF64FC090F70993
:1023C000D090F809E090F909C082D182E2828F5F53
:1023D000E8CF4F5F5F4F4630510509F0A8CF81111C
:1023E0000E94CE079091040180910501890F80938E
:1023F00005018B5F8131D8F0919590930401809114
:10240000650690916606889660E073E00E94E03170
:10241000909366068093650627EF39E04091530953
:1024200060915209EF90DF90CF900C945B07EF9092
:10243000DF90CF9008958091500980FF2DC02F9B91
:102440002BC086958F71E82FF0E03297E731F105C8
:1024500018F5E658FF4F0C9408320C94800B0C943E
:10246000E40B0C948D0C84500C94240D86500C9429
:10247000640D0C94010E0C94D60E89500C944D0BE7
:102480008B500C943A108D500C945A1083510C942C
:10249000041187510C94851108952F985C9A089522
:1024A00010921D090C94B208CF93DF9300D000D096
:1024B0001F92CDB7DEB7662371F0642F852F0E947F
:1024C000DD0A0E94602B60930308709304088093D8
:1024D0000508909306080F900F900F900F900F90A3
:1024E000DF91CF9108952F9B12C0809164068F5F7A
:1024F000813518F4809364060AC0109264068091B6
:10250000FD07811102C00E941B120E94AA05809142
:102510006206909163060196813D27E0920728F4B8
:10252000909363068093620625C010926306109212
:1025300062068091FD078823E9F080911B0A8430B0
:10254000A9F00E94BF070E94CE075C9A20E040E0FD
:1025500060E880E00E94860520E040E060E881E0DD
:102560000E94860585B1805885B904C01092FD0788
:102570000E9450120C9409152091E6068091E706FE
:10258000821759F030E0F901E851F94F80812F5F4F
:102590003F4F2093E60690E008958FEF9FEF089558
:1025A0009091C80095FFFCCF8093CE0008951F92B4
:1025B0000F920FB60F9211242F933F934F938F9347
:1025C0009F93EF93FF938091E70690E09C012F5F2C
:1025D0003F4F4091E606421741F03091CE00FC019A
:1025E000E851F94F30832093E706FF91EF919F91D7
:1025F0008F914F913F912F910F900FBE0F901F9091
:1026000018958091F70708950895F89487E68093C8
:10261000CC001092CD00E9ECF0E0808180698083ED
:10262000808188608083EAECF0E080818083E8EC40
:10263000F0E080818260808378940895F8948CE043
:102640008093CC0078940895EF92FF920F931F939C
:10265000CF938C010E94542B7C01C0E0C7010E94E3
:102660006C2B80179107F0F40E94BC129C012F3F45
:102670008FEF3807A9F02D3099F04C2F50E02A3019
:1026800051F4C23030F0FA01E951F84F80818F34B3
:1026900049F02FE530E0FA01E751F84F2083CF5F92
:1026A000CD30E0F2EC2FF0E0E751F84F108289EEE8
:1026B00097E0CF911F910F91FF90EF900895CF93E6
:1026C000DF93EC018991882319F00E94D012FACF90
:1026D000DF91CF9108950E945F1384E690E00C94FF
:1026E00024132FEF32E547E0215030404040E1F71E
:1026F00000C000000C946B13CF93DF93EC018F5656
:1027000091098230910520F08A579109029788F447
:102710008091FA079091FB07892B31F489E792E0C9
:102720009093FB078093FA07D093F907C093F807BB
:1027300004C01092FB071092FA078091FC078111E8
:1027400028C082E891E00E945F13DF93CF9384EB6F
:1027500091E09F938F938AEF99E09F938F930E94CC
:1027600089328AEF99E00E946B1342E050E066E103
:1027700072E00E946A320F900F900F900F900F90AE
:102780000F90892B19F41092FC0703C081E080930D
:10279000FC07DF91CF910895CF93DF93EC018091F7
:1027A000FC07811145C087E991E00E945F138C818D
:1027B000282F082E000C330B3F938F938B81282FEB
:1027C000082E000C330B3F938F938A81282F082EFD
:1027D000000C330B3F938F938981282F082E000C18
:1027E000330B3F938F938BEA91E09F938F938AEF04
:1027F00099E09F938F930E9489328AEF99E00E941B
:102800006B1342E050E066E172E00E946A322DB73D
:102810003EB7245F3F4F0FB6F8943EBF0FBE2DBFAB
:10282000892B19F41092FC0703C081E08093FC0708
:102830008091FC07811129C088EB91E00E945F1311
:1028400088811F928F9384EB91E09F938F938AEFFF
:1028500099E09F938F930E9489328AEF99E00E94BA
:102860006B1342E050E066E172E00E946A320F9022
:102870000F900F900F900F900F90892B19F41092DA
:10288000FC0703C081E08093FC07DF91CF9108959E
:10289000CF93DF932091FC0721113FC0EC018EEC18
:1028A00091E00E945F138F811F928F938E811F9200
:1028B0008F938D811F928F938C811F928F938B8129
:1028C0001F928F938A811F928F9388811F928F937B
:1028D00082EE91E09F938F938AEF99E09F938F937D
:1028E0000E9489328AEF99E00E946B1345E050E024
:1028F00069E072E00E946A322DB73EB72E5E3F4F0C
:102900000FB6F8943EBF0FBE2DBF892B21F481E096
:102910008093FC0702C01092FC07DF91CF910895CD
:10292000CF93DF93559A5D980E944B2B0E9405131D
:102930008FE092E00E9471138FE092E00E945F139B
:1029400084E690E00E942413EC0142E050E063E151
:1029500072E00E946A32892B91F142E050E066E118
:1029600072E0CE010E946A32892B49F10E941E1347
:102970008FE092E00E9471132FEF80E792E02150E8
:1029800080409040E1F700C0000089E192E00E94A1
:102990006B1345E050E069E072E00E946A32892BD7
:1029A000A9F588E292E00E94711387E492E00E9408
:1029B000711387E892E0DF91CF910C94711389E253
:1029C00091E00E9471138FE092E00E9471138CE8F5
:1029D00092E00E9471138AE391E00E945F1383E901
:1029E00092E00E9471138DE992E00E9471138CEACB
:1029F00092E00E9471138CEB92E00E9471138CECB8
:102A000092E00E9471130E94E82BB0CFDF91CF912A
:102A100008958091FA079091FB070097F1F08230BA
:102A2000910530F001979093FB078093FA07089582
:102A30002091E8072F5F2093E8078091F807909195
:102A4000F90730E043EF50E0481B590B24173507D6
:102A500020F01092E8070C947C130895CF935C9BB0
:102A600093C0C82F8FED92E00E946B13FC0141814F
:102A700080ED840F8A3020F081E080930A0832C014
:102A800082818A3378F5608170E06053710994E641
:102A9000969FF001979FF00D112450E0405351098B
:102AA0009AE0949F9001959F300D11242E0F3F1FA7
:102AB000280F311D83E0220F331F8A95E1F72A5436
:102AC0003240309314012093130120318EE03807F7
:102AD00020F481E08093FD0705C023343E4010F0D0
:102AE0001092FD07C23009F04FC080911301909100
:102AF0001401833D2FE09207E8F48F362FE0920710
:102B0000D8F48D332FE09207C8F4893D2EE0920768
:102B1000B8F4873A2EE09207A8F485372EE09207A2
:102B200098F483342EE0920788F481319E4080F03F
:102B3000C4E10FC0CAE50DC0C0E50BC0C6E409C0C2
:102B4000CCE307C0C2E305C0C8E203C0CEE101C0C8
:102B5000CAE08BEE92E00E945F131F92CF9384EB4A
:102B600091E09F938F938AEF99E09F938F930E94B8
:102B700089320F900F900F900F900F900F908AEF67
:102B800099E0CF910C946B13CF9108950E94602B24
:102B900060930308709304088093050890930608D7
:102BA0000895CF93DF935D99F6C08091FC07882349
:102BB000B1F08FE092E00E946B1342E050E066E1DA
:102BC00072E00E946A32892B39F48AEF92E00E9407
:102BD0006B131092FC0703C081E080930A08809178
:102BE0000A088823C1F084E690E00E942413EC01D7
:102BF00042E050E066E172E00E946A32892B59F0AF
:102C000045E050E069E072E0CE010E946A32892B13
:102C100011F010920A0880910A08811151C0809128
:102C20000708909108080E946C2B8938934108F49A
:102C300047C00E94542B909308088093070884E1B2
:102C400093E00E946B13FC018081813351F48091E9
:102C50000008811118C081E08093000810920908D3
:102C600012C0803369F480910008882319F0109213
:102C7000000809C0809109088F5F8093090803C08C
:102C800081E080930A0880910B08811112C0809125
:102C90001201882371F080910908823150F08091EF
:102CA0001B0A843021F05D9A84E080931201109217
:102CB000090880911201823018F481E00E942E15DB
:102CC00080911B0A843099F180911201823021F4A5
:102CD0000E942E1583E012C0813091F460910308A8
:102CE0007091040880910508909106080E94962B27
:102CF00069397A438105910518F082E080931201C9
:102D000080911201833099F4609103087091040856
:102D100080910508909106080E94962B61347445B5
:102D20008948910520F084E0809312015D9A80919A
:102D3000FE07882381F18C3011F0823119F583E28E
:102D400093E00E945F138091FE07823119F48CE3B7
:102D500093E00AC088EE92E00E946B138FE393E049
:102D60000E946B138DE992E00E946B130E94542124
:102D70008FEF99E6E8E181509040E040E1F700C034
:102D8000000009C0853139F48CEB92E00E946B138E
:102D90008CE08093FE0780910B08811122C00E9475
:102DA000671F8850914079F00E9454218091200142
:102DB000809302081092200188E091E00E94621F37
:102DC00082E090E022C08091010881112AC08091A8
:102DD0001B0A843031F581E080930B088093010851
:102DE00020C00E94671F8551914099F081E0809337
:102DF00001080E945421809102088093200185E1FE
:102E000091E00E94621F83E090E0DF91CF910C94EB
:102E1000C00480911B0A843021F010920B0810929C
:102E20000108DF91CF9108958331A1F190F48C30A6
:102E300019F1823109F18530D9F50E9454212FEF23
:102E400089E698E1215080409040E1F700C0000001
:102E500011C08631A1F018F4853171F029C0883194
:102E600019F0803CE1F024C090910B0881E08927A3
:102E700080930B0881E008958093FE07FBCF90912B
:102E8000FF0781E089278093FF078111F3CF0E941C
:102E9000B104F0CF9091120181E0892706C08091A2
:102EA00001088111E7CF5D9A8AE080931201E2CF99
:102EB00080E008950FB6F894A8958091600088612D
:102EC00080936000109260000FBE9DE088E10FB615
:102ED000F894A895809360000FBE909360000895C9
:102EE000CF9390E080E80FB6F894809361009093C0
:102EF00061000FBE0E949F1B0E94FA1B8091E2009E
:102F000084608093E20078948FEF90911B0A815047
:102F1000943041F0EFE3FFE13197F1F700C000009A
:102F20008111F3CF80911B0A843019F481E08093E2
:102F30000B080E9490140E94C6150E94BA1F81E0DF
:102F400080930C080E945A17C1E0809112018230D0
:102F5000F8F00E945E040E94322C0E9464048823D0
:102F6000B9F00E942D030E94602B609303087093B8
:102F7000040880930508909306080E945A170E943F
:102F80006A2C80911201843008F05D98C093120180
:102F9000809112018430C8F6A895823010F40E9406
:102FA000C01F0E94D115D1CF80911E080895CF93E4
:102FB000DF9300D01F92CDB7DEB79C0180911B0A32
:102FC000843019F593E099833B832A839093E90039
:102FD0008FEF9091E800815095FD06C09AE69A9592
:102FE000F1F700C08111F5CF8091E80085FF0DC099
:102FF00040E050E063E070E0CE0101960E94411A8B
:103000008091E8008E778093E8000F900F900F90EA
:10301000DF91CF910895CF93DF9300D01F92CDB76A
:10302000DEB720911B0A243021F522E029839B83FF
:103030008A8383E08093E9008FEF9091E8008150CC
:1030400095FD06C09AE69A95F1F700C08111F5CF7B
:103050008091E80085FF0DC040E050E063E070E043
:10306000CE0101960E94411A8091E8008E778093EC
:10307000E8000F900F900F90DF91CF91089520916D
:103080001B0A2430F1F422E02093E9002FEF309165
:10309000E800215035FD06C03AE63A95F1F700C048
:1030A0002111F5CF2091E80025FF0BC040E050E052
:1030B00065E070E00E94411A8091E8008E7780936D
:1030C000E8000895CF93DF9320911B0A243009F084
:1030D00048C0EC0180911F018823E1F0809120011C
:1030E0008823C1F086E08093E9008FEF9091E8009B
:1030F000815095FD06C095E19A95F1F70000811188
:10310000F5CF8091E80085FF2CC040E050E060E101
:1031100070E017C081E08093E9008FEF9091E800A4
:10312000815095FD06C09AE69A95F1F700C081118D
:10313000F5CF8091E80085FF14C040E050E068E0E2
:1031400070E0CE010E94411A8091E8008E77809352
:10315000E80080E1FE01AEE0B8E001900D928A95B2
:10316000E1F7DF91CF91089580911A0A811109C08A
:103170000E949F1B0E94FA1B8091E2008460809352
:10318000E200089510921A0A089508951F93CF93AC
:10319000DF93CDB7DEB7A0970FB6F894DEBF0FBEB2
:1031A000CDBF80911B0A843049F51091E9001F7052
:1031B0009091EC00892F817090FD80E8182B85E0BC
:1031C0008093E9008091E80082FF15C08091E800BB
:1031D00085FF0CC040E050E060E270E0CE01019657
:1031E0000E948C1ACE0101960E944B1E8091E8002D
:1031F0008B778093E8001F701093E900A0960FB6BC
:10320000F894DEBF0FBECDBFDF91CF911F9108951F
:1032100042E061EC81E00E943A1B42E061EC82E016
:103220000E943A1B42E061EC83E00E943A1B42E2BA
:1032300061EC84E00E943A1B42E260EC85E00E946F
:103240003A1B42E161EC86E00C943A1B80911D0A26
:10325000833009F455C030F4813071F0823009F4C4
:103260008EC008958A3009F47AC08B3009F460C0AA
:10327000893009F09CC020C080911C0A813A09F075
:1032800096C08091E800877F8093E8008091200AB3
:103290009091210A892B21F460E18EE098E003C02F
:1032A00060E080E090E070E00E94D71A8091E80032
:1032B0008B778093E800089580911C0A813209F091
:1032C00076C08091200A9091210A009719F0049706
:1032D00009F06DC08091E800877F8093E8008091BD
:1032E000E80082FD05C080911B0A8111F8CF5FC004
:1032F0008091F10080931E088091E8008B7753C085
:1033000080911C0A813A09F052C08091200A909164
:10331000210A892B09F04BC08091E800877F8093B8
:10332000E8008091E80080FFFCCF80911F0136C04B
:1033300080911C0A8132D9F58091200A9091210A4E
:10334000892BA9F58091E800877F8093E8000E948F
:103350004E1B80911E0A80931F010C945421809172
:103360001C0A813221F58091E800877F8093E80074
:103370000E944E1B80911F0A80931F080895809120
:103380001C0A813AA1F48091E800877F8093E800CD
:103390008091E80080FFFCCF80911F088093F100AE
:1033A0008091E8008E778093E8000C944E1B08957E
:1033B00080911E0880930D0810921E0880E00E94E4
:1033C000B2040E9467200C9454210C94D8190E94D6
:1033D0006A2C80910D0880931E0808950C94E719BB
:1033E000292F332723303105C1F05CF4213031051A
:1033F00079F022303105E9F58DE890E02EE933E0EF
:103400003CC021323105C1F02232310511F131C009
:1034100082E190E02BE234E030C0992783309105BF
:1034200040F5FC01EE0FFF1FE659FC4F2081318172
:10343000FC01E959FC4F1AC06530D8F4E62FF0E0E2
:10344000EE0FFF1FE35AFC4F2081318189E090E0AD
:1034500014C0653070F470E0FB01EE0FFF1FED5AF1
:10346000FC4F20813181FB01E25BFC4F808190E0C9
:1034700004C080E090E020E030E0FA013183208356
:103480000895CF92DF92EF92FF920F931F93CF9305
:10349000DF93EC018B016A010E946D1B811133C027
:1034A000C114D10439F0F60180819181081B190BF8
:1034B000C80FD91FE12CF12C0115110519F18091CC
:1034C000E80085FD16C08091E8008E778093E800C3
:1034D000C114D10449F0F60180819181E80EF91EF2
:1034E000F182E08285E00FC00E946D1B882321F3EA
:1034F0000AC089918093F10001501109FFEFEF1A82
:10350000FF0ADACF80E0DF91CF911F910F91FF90FA
:10351000EF90DF90CF900895CF92DF92EF92FF92DD
:103520000F931F93CF93DF93EC018B016A010E94ED
:103530006D1B811133C0C114D10439F0F6018081B3
:103540009181081B190BC80FD91FE12CF12C011513
:10355000110519F18091E80085FD16C08091E80001
:103560008B778093E800C114D10449F0F601808183
:103570009181E80EF91EF182E08285E00FC00E9481
:103580006D1B882321F30AC08091F10089930150BB
:103590001109FFEFEF1AFF0ADACF80E0DF91CF9138
:1035A0001F910F91FF90EF90DF90CF9008952091A1
:1035B000220A3091230A2617370748F06115710552
:1035C00039F42091E8002E772093E80001C0B9017A
:1035D00040E061157105A9F120911B0A222309F42D
:1035E00043C0253009F442C02091E80023FD40C0CB
:1035F0002091E80022FD32C02091E80020FFE9CFB1
:103600004091F3002091F20030E0342BFC01CF0117
:103610006115710559F02830310540F4819180938E
:10362000F100615071092F5F3F4FF1CF41E0283029
:10363000310509F040E02091E8002E772093E80062
:10364000C8CF4111C9CF0AC080911B0A882361F0FD
:10365000853061F08091E80083FD0AC08091E80028
:1036600082FFF2CF80E0089582E0089583E008951C
:1036700081E008958F708093E900EBEEF0E08081A7
:1036800081608083EDEEF0E010826093EC00408377
:103690008091EE00881F8827881F089580911C0A5A
:1036A00087FF11C08091E80082FD05C080911B0A50
:1036B0008111F8CF11C08091E8008B770BC0809109
:1036C0001B0A882349F08091E80080FFF8CF8091A1
:1036D000E8008E778093E80008952091E40030910F
:1036E000E50095E64091EC00842F817040FF22C0F8
:1036F0008091E80080FD1CC080911B0A882391F016
:10370000853091F08091EB0085FD10C04091E40080
:103710005091E5004217530729F39A01915011F790
:1037200084E0089582E0089583E0089581E008959B
:1037300080E008954091E80042FFDECF08950E94A6
:103740000B1C0E94131CE0EEF0E0808181608083FE
:10375000E8EDF0E080818F77808319BCA7EDB0E0C1
:103760008C918E7F8C9380818F7E808310921A0A39
:1037700008950F931F93CF93DF930E940B1C0E9419
:10378000131CC8EDD0E088818F778883888180689A
:10379000888388818F7D888319BC10921B0A1092C0
:1037A000180A1092190A00EE10E0F80180818B7F50
:1037B000808388818160888342E060E080E00E94AD
:1037C0003A1BE1EEF0E080818E7F8083E2EEF0E054
:1037D000808181608083808188608083F80180811E
:1037E0008E7F8083888180618883DF91CF911F9154
:1037F0000F910895E8EDF0E080818F7E8083E7ED02
:10380000F0E080818160808384E082BF81E08093EA
:103810001A0A0C94B91BE8EDF0E080818E7F80835A
:103820001092E20008951092DA001092E1000895DB
:103830001F920F920FB60F9211242F933F934F9325
:103840005F936F937F938F939F93AF93BF93EF9308
:10385000FF938091E10082FF0BC08091E20082FF24
:1038600007C08091E1008B7F8093E1000E94C61821
:103870008091DA0080FF22C08091D80080FF1EC0B6
:1038800080910C0881110E94E82B8091DA008E7FD4
:103890008093DA008091D90019BC80FF0BC082E0D0
:1038A00089BD09B400FEFDCF81E080931B0A0E9410
:1038B000B41804C010921B0A0E94C2188091E10043
:1038C00080FF19C08091E20080FF15C08091E20066
:1038D0008E7F8093E2008091E20080618093E2001D
:1038E0008091D80080628093D80019BC85E08093D5
:1038F0001B0A0E94E5198091E10084FF34C0809189
:10390000E20084FF30C080910C0881110E94E82BF6
:1039100019BC82E089BD09B400FEFDCF8091D800BA
:103920008F7D8093D8008091E1008F7E8093E100AD
:103930008091E2008F7E8093E2008091E2008160BE
:103940008093E2008091180A882311F084E007C078
:103950008091E30087FD02C081E001C083E0809395
:103960001B0A0E94EE198091E10083FF29C080911B
:10397000E20083FF25C08091E100877F8093E10012
:1039800082E080931B0A1092180A8091E1008E7FDA
:103990008093E1008091E2008E7F8093E20080912D
:1039A000E20080618093E20042E060E080E00E94FB
:1039B0003A1B8091F00088608093F0000E94C51847
:1039C000FF91EF91BF91AF919F918F917F916F91F7
:1039D0005F914F913F912F910F900FBE0F901F90CD
:1039E00018951F920F920FB60F9211242F933F93A9
:1039F0004F935F936F937F938F939F93AF93BF93F7
:103A0000CF93DF93EF93FF93C091E900CF70809144
:103A1000EC00D82FD17080FDD0E81092E9008091A1
:103A2000F000877F8093F00078940E94351D1092FB
:103A3000E9008091F00088608093F000CD2BCF707A
:103A4000C093E900FF91EF91DF91CF91BF91AF91CA
:103A50009F918F917F916F915F914F913F912F91A6
:103A60000F900FBE0F901F9018951F93CF93DF9369
:103A700000D0CDB7DEB7ECE1FAE088E08E0F909190
:103A8000F10091938E13FBCF0E9426198091E800DC
:103A900083FFEDC080911C0A90911D0A492F50E0D0
:103AA0004A30510508F0E3C0FA01EF56FF4F0C947D
:103AB0000832803881F0823809F0D9C08091200A1C
:103AC0008F708093E9008091EB0085FB882780F957
:103AD0001092E90007C08091190A882311F082E052
:103AE00001C080E09091E800977F9093E800809378
:103AF000F1001092F10095C0282F2D7F09F0B7C07A
:103B0000882319F0823061F0B2C080911E0A8130A2
:103B100009F0ADC0933009F080E08093190A2BC002
:103B200080911E0A811127C08091200A8F7009F4AC
:103B30009EC08093E9002091EB0020FF1CC09330D1
:103B400021F48091EB00806214C09091EB009061B1
:103B50009093EB0021E030E0A90102C0440F551F13
:103B60008A95E2F74093EA001092EA008091EB0018
:103B700088608093EB001092E9008091E800877FD5
:103B800053C0811174C010911E0A1F778091E30009
:103B90008078812B8093E3008091E800877F809379
:103BA000E8000E944E1B8091E80080FFFCCF8091CE
:103BB000E30080688093E300111102C082E001C03D
:103BC00083E080931B0A53C08058823008F04FC0B6
:103BD000AE014F5F5F4F6091200A80911E0A909165
:103BE0001F0A0E94F019BC01892B09F440C0909172
:103BF000E800977F9093E80089819A810E94D71A04
:103C00008091E8008B778093E80031C0803879F5A7
:103C10008091E800877F8093E8008091180A809364
:103C2000F1008091E8008E778093E8000E944E1B9F
:103C30001EC081111CC090911E0A9230C0F4809168
:103C4000E800877F8093E8009093180A0E944E1B3B
:103C50008091180A811106C08091E30087FD02C09F
:103C600081E001C084E080931B0A0E9408198091C2
:103C7000E80083FF0AC08091E800877F8093E80016
:103C80008091EB0080628093EB000F900F90DF91AA
:103C9000CF911F910895AF92BF92DF92EF92FF9262
:103CA0000F931F93CF93DF93CDB7DEB728970FB64F
:103CB000F894DEBF0FBECDBF0DB71EB7DC012C914F
:103CC00011963C91EDB7FEB7E31BF1090FB6F894DE
:103CD000FEBF0FBEEDBF4DB75EB74F5F5F4F5A01DE
:103CE000722F771F7727771F632F661F6627661F40
:103CF0002F773F77772379F0AC01430F511DFA01FD
:103D0000A281EA2FF0E0BE2FAA27FA014381FD012C
:103D1000E40FF11D02C0E0E0F0E002967501AC0195
:103D2000D42ED81AD31638F4DA01DD90AD01D701BC
:103D3000DD927D01F5CF29836D833A834A2DBC82C4
:103D4000AB827E83F887EF835C818E2F98850E94FB
:103D5000391F81E00FB6F8941EBF0FBE0DBF289625
:103D60000FB6F894DEBF0FBECDBFDF91CF911F918C
:103D70000F91FF90EF90DF90BF90AF900895DF928A
:103D8000EF92FF920F931F93CF93DF93CDB7DEB7E0
:103D900028970FB6F894DEBF0FBECDBF29833A83B4
:103DA0004B835C836D837E838F839887EB80FC805D
:103DB00080912208662391F0811123C0F70181814F
:103DC00090E0982F88272081820F911D90932108E1
:103DD0008093200881E08093220811C0882319F085
:103DE000109222080EC0F701818190E0982F882759
:103DF0002081820F911D909321088093200802E07A
:103E000001C000E0D12C10E02D2D30E08A8190E03F
:103E1000801B910B28173907ECF4809120089091B2
:103E20002108AC0148505109483F534040F42E0D41
:103E30003F1DF901E00FF11F60810E94363580912E
:103E400020089091210801969093210880932008E2
:103E5000D394DACF81E028960FB6F894DEBF0FBE78
:103E6000CDBFDF91CF911F910F91FF90EF90DF9029
:103E70000895CF93DF93CDB7DEB728970FB6F894A8
:103E8000DEBF0FBECDBF3A834B835C836D837E83E1
:103E90008F839887203119F40E94BF1E09C03A8190
:103EA0004B815C816D817E818F8198850E94F809AC
:103EB00081E028960FB6F894DEBF0FBECDBFDF912C
:103EC000CF910895909328088093270808958091B2
:103ED0002708909128080895E0912708F091280874
:103EE000309721F00190F081E02D099480E0089551
:103EF000E0912708F0912808309721F00280F381A3
:103F0000E02D09940895E0912708F0912808309752
:103F100021F00480F581E02D099408952091250871
:103F2000309126088217930771F0909326088093AA
:103F30002508E0912708F0912808309721F00680A5
:103F4000F781E02D099408952091230830912408E9
:103F50008217930771F09093240880932308E091CF
:103F60002708F0912808309721F00084F185E02D92
:103F7000099408950E944B2B0E9433030C94B004C3
:103F80008F929F92AF92BF92CF92DF92EF92FF9269
:103F90000F931F93CF93DF9300D000D01F92CDB724
:103FA000DEB70E9493030AE218E0F12C8F2D0E94E5
:103FB00023034C01F801A080B180A826B926A114E2
:103FC000B10439F4F3940E5F1F4FF4E0FF12EECF0B
:103FD00039C08091F60881FD0E942C03E12CCC248D
:103FE000C394D12CC6018A219B21892B21F1E9821E
:103FF000FA8221E0C60188219921892B09F420E069
:104000002B830E94542B8160782F9D838C83498160
:104010005A816B818D810E94682049815A816B8110
:104020007C818D810E945412F801808191818C25C0
:104030009D2591838083E394CC0CDD1CFCE0EF1282
:10404000D1CFC0CF8FEF89838A831B820E94542BEC
:104050008160782F9D838C8349815A816B818D810A
:104060000E9468200E9473120E94F42D109129086A
:104070000E946C1F1817B9F00E946C1F80932908CA
:104080000F900F900F900F900F90DF91CF911F9195
:104090000F91FF90EF90DF90CF90BF90AF909F90E7
:1040A0008F900C94492B0F900F900F900F900F90C2
:1040B000DF91CF911F910F91FF90EF90DF90CF9004
:1040C000BF90AF909F908F9008950C94B204089584
:1040D000CF93DF93CDB7DEB72B970FB6F894DEBF43
:1040E0000FBECDBF4F83588769877A878B87DE01E4
:1040F000119686E0FD0111928A95E9F785E0FE01AF
:10410000379601900D928A95E1F749815A816B812A
:104110007C818D819E810E9496272B960FB6F89404
:10412000DEBF0FBECDBFDF91CF910895CF9388231F
:1041300009F46CC0803B29F487EA92E0CF910C949B
:104140003A28C82F8CEF8C0F813A20F080E58C0F35
:104150008E3248F48C2F0E94F52F811157C08C2F7E
:104160000E945F2A0CC080E28C0F883058F4C77020
:1041700081E001C0880FCA95EAF70E94E82ACF9132
:104180000C94222B8BE58C0F833078F4C53A29F000
:10419000C63A31F083E890E005C081E890E002C0C3
:1041A00082E890E0CF910C948E1F88E58C0F8731C8
:1041B00068F5C83A89F0C93A91F0CA3A99F0CB3A11
:1041C000A1F0CC3AA9F0CD3AB1F0CE3AB9F0CF3A5D
:1041D000C1F080E090E017C082EE90E014C089EE5C
:1041E00090E011C08AEE90E00EC085EB90E00BC02D
:1041F00086EB90E008C083EB90E005C084EB90E094
:1042000002C087EB90E0CF910C94A41FCF9108954A
:10421000882349F19CEF980F913A20F090E5980F90
:104220009E3218F40E94A12A0DC090E2980F983097
:1042300058F4877091E001C0990F8A95EAF7892FA9
:104240000E94EE2A0C94222B9BE5980F933020F4C9
:1042500080E090E00C948E1F885A873120F480E033
:1042600090E00C94A41F0895882321F00E94E82A6E
:104270000C94222B0895882321F00E94EE2A0C949E
:10428000222B08950E94082B0E94D72A0E94222BDD
:104290000E94D92E0E94E92D80E090E00E948E1F9E
:1042A00080E090E00C94A41F0E94F82A0C94422114
:1042B000CF93DF9300D000D01F92CDB7DEB70E941E
:1042C000F229292F22952F7030E02C3031054CF443
:1042D0002A303105C4F4225031092230310540F032
:1042E00023C02C303105D1F02F303105B9F01CC07E
:1042F000853A28F48430B0F4823028F413C090E278
:10430000980F983078F0883E30F4803E58F484500E
:10431000813A50F407C0803F39F404C093FB8827EA
:1043200080F903C081E001C080E00F900F900F90F2
:104330000F900F90DF91CF910895CF93882329F0AC
:104340008A3020F4CDE1C80F01C0C7E28C2F0E9453
:1043500096208C2FCF910C940821BF92CF92DF92A0
:10436000EF92FF920F931F93CF93DF9300D000D073
:1043700000D0CDB7DEB725E0FC01DE01119601903B
:104380000D922A95E1F7FC01408151810281638100
:104390007481258122952F706115710509F434C34C
:1043A0005F3F19F44F3F09F42FC36C0149835A83CF
:1043B0000B83862F7D836C83602F782F8D812E83D6
:1043C0000E94F229182FB92E0E94F1290E94E1289B
:1043D000EB2DE295EF70F0E0E556FF4F2E810C9447
:1043E00008328B2D807F9B2D9F70F92E882319F02A
:1043F000F29440EFF422002349F0FF2009F486C232
:104400008F2D0E94FB2A0E94222B80C2812F0E94A6
:104410000821FF2009F4F8C28F2D0E94012B269657
:104420000FB6F894DEBF0FBECDBFDF91CF911F91C5
:104430000F91FF90EF90DF90CF90BF900C94222BC4
:104440008B2D807F9B2D9F70F92E803219F0F29476
:1044500030EFF322112319F0113009F12AC00023A3
:10446000B1F08F2D222351F1213041F526960FB660
:10447000F894DEBF0FBECDBFDF91CF911F910F919A
:10448000FF90EF90DF90CF90BF900C940B2B2223E6
:1044900019F0213009F4B8C20E940E2B2DC0002360
:1044A000F1F0233008F0B0C20E94E52A8F2129F0F4
:1044B00023C00023F9F0211116C08F2D26960FB6C8
:1044C000F894DEBF0FBECDBFDF91CF911F910F914A
:1044D000FF90EF90DF90CF90BF900C94342122306A
:1044E00008F092C209C0F601858180FF0FC28F706B
:1044F0008583E3CF211137C28F2DA1C12B2D2695A6
:104500002695237030E02115310521F02130310549
:10451000D1F07AC2002321F0812F9B2D937002C02D
:1045200080E090E026960FB6F894DEBF0FBECDBFB8
:10453000DF91CF911F910F91FF90EF90DF90CF907F
:10454000BF900C94A41F002351F1E12EFB2DF370BA
:10455000FF2EE11423E0F20604F185EB92E00E94C5
:104560003A288FEF90E7E2E081509040E040E1F799
:1045700000C00000A895C701807F992724E0969588
:1045800087952A95E1F70E949D21C7018F70992791
:104590000E949D2180EB92E011C2C70102C080E021
:1045A00090E026960FB6F894DEBF0FBECDBFDF9128
:1045B000CF911F910F91FF90EF90DF90CF90BF9020
:1045C0000C948E1F812F002381F00E94FC2C0E94EE
:1045D000E92D163408F018C2E12FF0E0ED5CF74F3A
:1045E00081E08083809332080FC20E94642D0E9474
:1045F000E92D163408F008C2E12FF0E0ED5CF74F2A
:1046000010821092320800C28B2D837009F07BC09B
:104610000111FAC1812F829586958770880F880FC6
:10462000912F9F70C92ED12CE12CF12C082E04C0A3
:10463000CC0CDD1CEE1CFF1C0A94D2F714FF12C038
:104640004FE050E060E070E004C0440F551F661F6B
:10465000771F8A95D2F7CB01BA0160957095809546
:10466000909503C060E070E0CB012B2D2695269538
:104670002370422F50E042305105D9F043305105AC
:1046800069F16C297D298E299F294130510551F10D
:1046900026960FB6F894DEBF0FBECDBFDF91CF9147
:1046A0001F910F91FF90EF90DF90CF90BF900C94EF
:1046B00006296C297D298E299F2926960FB6F89404
:1046C000DEBF0FBECDBFDF91CF911F910F91FF9045
:1046D000EF90DF90CF90BF900C9420290E94062984
:1046E000C701B60126960FB6F894DEBF0FBECDBF48
:1046F000DF91CF911F910F91FF90EF90DF90CF90BE
:10470000BF900C94EC28002319F08B2D817001C010
:104710008695882309F478C1812F829586958770C4
:10472000880F880F912F9F70C92ED12CE12CF12C6E
:10473000082E04C0CC0CDD1CEE1CFF1C0A94D2F722
:1047400014FF12C04FE050E060E070E004C0440F7E
:10475000551F661F771F8A95D2F7CB01BA01609566
:1047600070958095909503C060E070E0CB012B2D93
:10477000269526952370422F50E042305105D9F0FE
:104780004330510569F16C297D298E299F294130DB
:10479000510551F126960FB6F894DEBF0FBECDBF7E
:1047A000DF91CF911F910F91FF90EF90DF90CF900D
:1047B000BF900C94CD296C297D298E299F2926969E
:1047C0000FB6F894DEBF0FBECDBFDF91CF911F9122
:1047D0000F91FF90EF90DF90CF90BF900C94DF2966
:1047E0000E94CD29C701B60126960FB6F894DEBF08
:1047F0000FBECDBFDF91CF911F910F91FF90EF9032
:10480000DF90CF90BF900C94BB29103F49F118F472
:10481000103E48F471C0123F09F443C0E8F1133F61
:1048200009F444C069C01F708B2D8F71002321F0E3
:104830000E945429812F42CE0E947529812F2696ED
:104840000FB6F894DEBF0FBECDBFDF91CF911F91A1
:104850000F91FF90EF90DF90CF90BF900C943B2191
:104860000023B1F0223008F0CFC08B2D8F71269637
:104870000FB6F894DEBF0FBECDBFDF91CF911F9171
:104880000F91FF90EF90DF90CF90BF900C949A29FA
:10489000233008F0B9C0E9CF002329F08B2D8F71A8
:1048A00049C00023D9F38B2D8F7171C0002399F07B
:1048B0008B2D8F7126960FB6F894DEBF0FBECDBF3D
:1048C000DF91CF911F910F91FF90EF90DF90CF90EC
:1048D000BF900C943F2926960FB6F894DEBF0FBE0A
:1048E000CDBFDF91CF911F910F91FF90EF90DF909F
:1048F000CF90BF900C943A29002369F12223C1F094
:10490000B3FE04C0F601858180FD12C0812F26967A
:104910000FB6F894DEBF0FBECDBFDF91CF911F91D0
:104920000F91FF90EF90DF90CF90BF900C94962066
:104930008B2D877026960FB6F894DEBF0FBECDBFC5
:10494000DF91CF911F910F91FF90EF90DF90CF906B
:10495000BF900C9454292223C1F0B3FE04C0F60189
:10496000858180FD12C0812F26960FB6F894DEBF98
:104970000FBECDBFDF91CF911F910F91FF90EF90B0
:10498000DF90CF90BF900C9408218B2D87702696D6
:104990000FB6F894DEBF0FBECDBFDF91CF911F9150
:1049A0000F91FF90EF90DF90CF90BF900C947529FE
:1049B0004B2D4F70612FC6010E94B60226960FB68E
:1049C000F894DEBF0FBECDBFDF91CF911F910F9145
:1049D000FF90EF90DF90CF90BF900C943A284B2D32
:1049E0004F70612FC60126960FB6F894DEBF0FBE3A
:1049F000CDBFDF91CF911F910F91FF90EF90DF908E
:104A0000CF90BF900C94DE0126960FB6F894DEBFCF
:104A10000FBECDBFDF91CF911F910F91FF90EF900F
:104A2000DF90CF90BF900895CF93DF9300D000D058
:104A30001F92CDB7DEB70F900F900F900F900F9091
:104A4000DF91CF910895CF93DF9300D000D000D0B5
:104A5000CDB7DEB726960FB6F894DEBF0FBECDBF3A
:104A6000DF91CF9108951F93CF93DF93C091730887
:104A700016E080917408C81799F0D0E01C9FF001EF
:104A80001D9FF00D1124EB58F74F40815181628139
:104A90007381848195810E9423252196C770E9CF77
:104AA000DF91CF911F9108954091A5085091A608DC
:104AB0006091A7087091A8088091A9089091AA0810
:104AC0000C9423258091AA0882958F7009F054C018
:104AD0008091A708882309F44FC080917308A091A2
:104AE00074086091A5087091A6084091A80850919B
:104AF000A908B6E08A1709F43FC090E041155105B6
:104B0000C1F17F3F11F46F3FA1F1B89FF001B99F50
:104B1000F00D1124EB58F74F218172132AC0208128
:104B2000621327C02281211124C0238134812417DC
:104B3000350710F421503109241B350B283C310571
:104B4000C0F42091AA082F7020612093AA0826E0C3
:104B5000289FF001299FF00D1124E658F74F80811E
:104B60008F708061808385EA98E00E94AD210C946B
:104B7000332501968770BECF0895BF92CF92DF9202
:104B8000EF92FF920F931F93CF93DF93CDB7DEB7D2
:104B900061970FB6F894DEBF0FBECDBF7C0185E0F4
:104BA000F701DE011D9601900D928A95E1F7D7017C
:104BB0004C9111965C9111971296DC901297139676
:104BC0000D911C9114973091A5086091A6088091D1
:104BD000A8089091A908009709F477C16F3F19F4CC
:104BE0003F3F09F472C1B090A708BB2009F4C5C0CB
:104BF0002091AA080817190728F0F801E81BF90BFB
:104C0000CF0104C080959095800F911FCC24C39450
:104C1000883C910580F0C12C207F09F0CCC0702F1A
:104C2000198B088B6D2D89890E94142585EA98E0DF
:104C30000E94AD21B6C0822F807F09F047C0651366
:104C400014C0341312C0D11010C02F7020612093F3
:104C5000AA080E94542585EA98E00E94AD2180911F
:104C6000AA08D70115968C932FC00115110519F1CB
:104C70005F3F11F44F3FF9F0CD2CD1101CC0809153
:104C800073082091740836E0821709F45CC090E044
:104C9000389FF001399FF00D1124EB58F74F6181D7
:104CA000561306C06081461303C06281611103C0C0
:104CB00001968770E9CFCD2CDD2009F426C18091C3
:104CC000AA0881608093AA08C12C1FC1651308C07F
:104CD000341306C0D11004C08091AA08D701C9C0FE
:104CE0004D875E87DF86702F198B088B6D2D898924
:104CF0000E9458218823E9F1DD20D9F12091AA08EA
:104D0000822F82958F7090E0029774F08091A508B1
:104D10009091A60898878F8319861B870A872C870E
:104D2000CE0107960E94AD2186E0F701A5EAB8E022
:104D300001900D928A95E1F70E9462250E94542508
:104D4000CC24C394E2C0702F198B088B60E0898952
:104D50000E94F229292F22952F7030E02230310550
:104D60000CF0C7C09F7009F0C1C0805E883008F4A5
:104D7000CCC0C7010E94AD21E3CF0817190708F482
:104D800056C0F801E81BF90BCF01883C910508F4E7
:104D900053C0C12C702F198B088B6D2D89890E94EF
:104DA0001425E5EAF8E086E0DF011D928A95E9F72F
:104DB0000E945425AAC0651314C0341312C0D11028
:104DC00010C08091AA08F7018583C7010E94AD2118
:104DD00086E0E5EAF8E0DF011D928A95E9F7CB2C41
:104DE00094C04D875E87DF86702F198B088B6D2DE1
:104DF00089890E945821882309F4BBCFDD2009F45A
:104E0000B8CF2091AA08822F82958F7090E00297E8
:104E10000CF48ACF8091A5089091A6089A83898383
:104E20001B821D830C832E83CE0101967BCF809540
:104E30009095800F911FA9CFCD2CDD2009F499CF3B
:104E400065132EC034132CC02091AA0820FD1FC06A
:104E5000822F82958F70D9F0D70115962C931597D4
:104E60008F3049F08F5F982F9295907F822F8F70AF
:104E7000892B15968C93C7010E94AD2186E0F7011E
:104E8000A5EAB8E001900D928A95E1F791CF86E00E
:104E9000F701A5EAB8E001900D928A95E1F735C0D7
:104EA0004D875E87DF86702F198B088B6D2D898962
:104EB0000E945821811138CF8091AA088160809387
:104EC000AA08C7010E94AD2120C0DD2009F451CFFE
:104ED0004D875E87DF86702F198B088B6D2D898932
:104EE0000E945821882309F444CF1ECF81113DCF61
:104EF0000CC0243031050CF03CCF9F7009F435CF45
:104F0000F7019581907F09F030CF8C2D61960FB617
:104F1000F894DEBF0FBECDBFDF91CF911F910F91EF
:104F2000FF90EF90DF90CF90BF9008951F93CF93A5
:104F3000DF93CDB7DEB72C970FB6F894DEBF0FBE68
:104F4000CDBF4F83588769877A878B879C87CE012F
:104F500007960E94BD25882369F08F8198852A8550
:104F60003B85232BF1F19F3F09F063C08F3F09F090
:104F700060C037C086E0FE013796DE0111960190D1
:104F80000D928A95E1F76F817885EA85FB853097E8
:104F900041F17F3F11F46F3F21F12091740830E01F
:104FA000C9010196877099274091730850E08417D2
:104FB000950709F447C069837A83FD83EC8396E003
:104FC000929FD001939FB00D1124AB58B74FFE01B3
:104FD000319601900D929A95E1F7809374080E94A2
:104FE000332516E080917308909174088917C1F1F8
:104FF000189FC00111248B58974F0E94BD2588230C
:1050000079F1E09173081E9FF0011124EB58F74FDE
:105010004081518162817381848195810E94232521
:105020008091730890E001968770992780937308A8
:10503000D9CF4F81588569857A858B859C850E945B
:105040002325CFCF0E945421109274081092730828
:10505000E5EAF8E086E0DF011D928A95E9F7C1CF25
:105060002C960FB6F894DEBF0FBECDBFDF91CF9167
:105070001F910895DF92EF92FF920F931F93CF93AA
:10508000DF93FC01892B09F48AC0E12CF12CDD248B
:10509000D394EF0121968491853709F461C058F4C7
:1050A000843708F04EC0843008F06AC08130D1F0F7
:1050B000823071F174C0883709F45DC050F48637CE
:1050C00009F455C0873709F06AC08E2D0E94F52A71
:1050D00054C09CE7980F903708F061C08F770E940A
:1050E000082150C08F010E5F1F4FFE01849190E296
:1050F000980F983050F48770FD2D01C0FF0F8A95EE
:10510000EAF78F2F0E94FB2A14C00E94962013C03A
:105110008F010E5F1F4FFE01C49180E28C0F88301B
:1051200060F4C7708D2D01C0880FCA95EAF70E9400
:10513000012B0E94222BE80125C08C2F0E94082100
:10514000FACF9F012E5F3F4FFE01C491CC2369F03F
:105150008FEC97E00197F1F700C00000C150F6CF47
:105160009F012E5F3F4FFE01F490E9010BC00E94AA
:10517000E52AE82E07C00E94F82A0E94222B02C0CE
:105180000E9496208F2D882341F0EFECF7E03197B5
:10519000F1F700C000008150F6CFFE017ACFDF9119
:1051A000CF911F910F91FF90EF90DF900895609342
:1051B000DB087093DC088093DD089093DE080C9484
:1051C000B30408956093DF087093E0088093E108CA
:1051D0009093E2080C94482B0F931F930091DF08E3
:1051E0001091E0082091E1083091E208602B712BCA
:1051F000822B932B6093DF087093E0088093E10883
:105200009093E2081F910F910C94482B0F931F93DA
:105210000091DF081091E0082091E1083091E20848
:1052200060237123822393236093DF087093E00847
:105230008093E1089093E2081F910F910C94482B02
:105240000F931F930091DF081091E0082091E1086F
:105250003091E20860277127822793276093DF0847
:105260007093E0088093E1089093E2081F910F91FA
:105270000C94482B60E070E0CB010C94D7280F937E
:105280001F9341E050E060E070E08A019B0104C0A0
:10529000000F111F221F331F8A95D2F7C901B801D1
:1052A0001F910F910C94D7280F931F9341E050E06A
:1052B00060E070E004C0440F551F661F771F8A9599
:1052C000D2F78091DB089091DC08A091DD08B091C5
:1052D000DE088A019B01082B192B2A2B3B2BC901C5
:1052E000B8011F910F910C94D7280F931F9341E0A1
:1052F00050E060E070E004C0440F551F661F771F48
:105300008A95D2F740955095609570958091DB080D
:105310009091DC08A091DD08B091DE088A019B0124
:10532000082319232A233B23C901B8011F910F9198
:105330000C94D7280F931F9341E050E060E070E099
:1053400004C0440F551F661F771F8A95D2F78091BE
:10535000DB089091DC08A091DD08B091DE088A019D
:105360009B01082719272A273B27C901B8011F914C
:105370000F910C94D7280F931F930091DB08109185
:10538000DC082091DD083091DE08602B712B822B28
:10539000932B1F910F910C94D7280F931F9300917B
:1053A000DB081091DC082091DD083091DE086023D5
:1053B0007123822393231F910F910C94D7280F936D
:1053C0001F930091DB081091DC082091DD083091DB
:1053D000DE0860277127822793271F910F910C9475
:1053E000D72808958F929F92AF92BF92DF92EF924B
:1053F000FF920F931F93CF93DF9300D000D01F92A3
:10540000CDB7DEB78A016623C9F18090DF0890909E
:10541000E008A090E108B090E2088091DB0890914C
:10542000DC08A091DD08B091DE08882A992AAA2A12
:10543000BB2A8FE1E82EF12CD501C4010E2C04C04B
:10544000B695A795979587950A94D2F780FF07C0E0
:10545000DE2CB8018E2D0E94A801019729F481E06D
:10546000E81AF10848F7D12C8CE0189FF0011124BC
:10547000E00FF11DE555F74FD08209C08CE0189F71
:10548000F0011124E40FF11DE555F74FD080098399
:105490001A8369817A818D2D0E94A8010F900F9047
:1054A0000F900F900F90DF91CF911F910F91FF9070
:1054B000EF90DF90BF90AF909F908F900895909164
:1054C0001F01992321F090912001911109C0209191
:1054D000210130912201F90132969FEF40E01FC077
:1054E000982F9695969596959F3050F5E0912101CD
:1054F000F0912201E90FF11D877021E030E0A90150
:1055000002C0440F551F8A95E2F7CA019181892B89
:10551000818308959F3F39F04F5F4E3041F05191A4
:105520005813F8CF0DC05111F7CF942FF5CF9F3FEF
:1055300039F0F901E90FF11D97FDFA95828308957D
:10554000089590911F01992321F0909120019111CC
:1055500009C02091210130912201F9013296205F8A
:105560003F4F1FC0982F9695969596959F30F0F4D3
:10557000E0912101F0912201E90FF11D877021E0F6
:1055800030E0A90102C0440F551F8A95E2F7CA0115
:10559000809591818923818308953196E217F307DD
:1055A00029F090819813F9CF1082F7CF089581E008
:1055B00090E0E0912101F0912201E80FF91F1082A3
:1055C000019680319105A9F708958091F508089515
:1055D0009091F508892B8093F50808958095909116
:1055E000F50889238093F50808958093F5080895B8
:1055F0001092F50808959091F408892B8093F4088F
:10560000089580959091F40889238093F408089573
:105610001092F40808958093E30808951092E30827
:1056200008958091210190912201FC0131969C0105
:10563000205F3F4F80E0919191118F5FE217F30758
:10564000D1F70895E0912101F09122018091F508B0
:105650008083E0912101F091220190818091F408F2
:10566000892B80838091E308882361F0E0912101F8
:10567000F09122019081892B80830E94112B81114E
:105680001092E30880912101909122010C94781FDF
:1056900008950C94652082E084BD93E095BD9DE75C
:1056A00097BD80936E0008952FB7F8948091F70806
:1056B0009091F808A091F908B091FA082FBF0895C9
:1056C0002FB7F8946091F7087091F8088091F90865
:1056D0009091FA082FBF0895CF92DF92EF92FF9238
:1056E0000F931F932FB7F8944091F7085091F80843
:1056F0006091F9087091FA082FBF6A017B01EE24CE
:10570000FF248C0120E030E0C016D106E206F3064B
:1057100010F4415051099A01281B390BC9011F91FE
:105720000F91FF90EF90DF90CF900895CF92DF928E
:10573000EF92FF920F931F932FB7F894C090F70842
:10574000D090F808E090F908F090FA082FBF970180
:105750008601061B170B280B390BC616D706E80661
:10576000F90618F0C901B80106C0C901B8016150B5
:105770007109810991091F910F91FF90EF90DF90BE
:10578000CF90089578941F920F920FB60F92112424
:105790008F939F93AF93BF938091F7089091F808F0
:1057A000A091F908B091FA080196A11DB11D80934E
:1057B000F7089093F808A093F908B093FA08BF91FE
:1057C000AF919F918F910F900FBE0F901F901895E2
:1057D0000E949F1BF8948FE39CE90197F1F700C0AA
:1057E000000087E090EBDC018093240A9093250A67
:1057F000A093260AB093270A9CE088E10FB6F8949C
:10580000A895809360000FBE909360000E94542181
:10581000FFCF1F920F920FB60F9211248F939F9379
:10582000AF93BF938091FB08813099F48091F70882
:105830009091F808A091F908B091FA088096A11DFE
:10584000B11D8093F7089093F808A093F908B093DE
:10585000FA08BF91AF919F918F910F900FBE0F905B
:105860001F90189580911B0A843009F432C00FB63E
:10587000F894A895809160008861809360001092F0
:1058800060000FBE81E08093FB0821E488E190E096
:105890000FB6F894A895809360000FBE2093600027
:1058A0000E944D1283B7817F846083BF83B781607C
:1058B00083BF7894889583B78E7F83BF0FB6F894A3
:1058C000A8958091600088618093600010926000CC
:1058D0000FBE08950C9450122CE0929FF0011124F9
:1058E000E80FF11DE659FE4F9491892F8F70929524
:1058F0009F7008958091000980FF0BC06091260180
:1059000085E0689FB0011124759567957595679539
:105910002BC081FF09C06091260185E0689FB0011E
:1059200011247595679520C082FF07C060912601FC
:1059300085E0689FB001112417C090910109992357
:10594000D1F060912501961788F72091260185E016
:10595000289F90011124929FA001939F500D112424
:1059600070E0CA010E94F4316038710540F461159D
:10597000710539F002C065E070E0862F08958FE769
:10598000089581E008958091000980FF08C060912A
:10599000240170E0759567957595679521C081FF25
:1059A00006C06091240170E07595679519C082FF6B
:1059B00004C06091240170E010C090910109992306
:1059C000C1F0609123019617A0F780912401899F6F
:1059D000C001112470E00E94F4316038710528F490
:1059E0006115710521F0862F08958FE7089581E0F4
:1059F000089561E070E0F4CF803F21F40E947A2C9A
:105A0000819504C0813F29F40E947A2C8093040977
:105A10000895823F21F40E947A2C819504C0833F2F
:105A200029F40E947A2C809303090895893F19F480
:105A30000E94C32C05C08A3F31F40E94C32C81957B
:105A40008093050908958B3F21F40E94C32C819512
:105A500004C08C3F29F40E94C32C8093060908954A
:105A6000843F21F480910209816017C0853F21F4B1
:105A700080910209826011C0863F21F48091020961
:105A800084600BC0873F21F480910209886005C0C3
:105A9000883F31F480910209806180930209089562
:105AA0008D3F21F48091000981600BC08E3F21F46D
:105AB00080910009826005C08F3F29F48091000920
:105AC0008460809300090895803F39F4809104092F
:105AD00087FF6CC01092040969C0813F29F480914E
