:100000000C9412010C942F010C942F010C942F01CD
:100010000C942F010C942F010C942F010C942F01A0
:100020000C942F010C942F010C94351D0C940E1E72
:100030000C94432C0C942F010C942F010C942F0141
:100040000C942F010C942F010C942F010C942F0170
:100050000C942F010C94F52B0C942F010C942F0170
:100060000C942F010C94D0130C942F010C942F019D
:100070000C942F010C942F010C942F010C942F0140
:100080000C942F010C942F010C942F010C942F0130
:100090000C9485060C942F010C942F010C942F01C5
:1000A0000C942F010C942F010C942F0170027402F8
:1000B000760278027A027C02580287028C025C0285
:1000C0005E0262026C026E027002740276027802B4
:1000D0007A027C028102870293028C02CD09D70941
:1000E000D709E009E009FF09FF09130A130AD21230
:1000F000D412D612D812D812DB12DB12DE12E012A2
:10010000E212E212E512E512E812E812E812E81231
:10011000EB12EB12EB12EB12EE12EE12CD18CF181F
:10012000D118D318D518F018F018F018F018F018E6
:10013000F018D718EA18EC18761E991E541F991E4D
:10014000541FDE1E011F541F231F361F75227522E8
:10015000A222A222FD225D23712571257F23712514
:100160007C247C244725712571255D2529141A08D6
:1001700015171C180C12802A7C041607090A0B0D8F
:100180000E0F8028791D1B06190511103637807D4A
:10019000787B7A7E80802C135051804F29141A0866
:1001A00015171C180C12132A2B041607090A0B0D1D
:1001B0000E0F3328791D1B06190511103637387DAF
:1001C000787B7A657C2C2C7E5051524F00000000C9
:1001D00000000000000001010203040506080A0CEB
:1001E0000F1114181C2024292E33393F464C535B21
:1001F000626A7179818A929AA2AAB2B9C1C8CFD52E
:10020000DCE1E7EBF0F4F7FAFCFDFEFF01620262CD
:100210000162026200012802280001E301150215B3
:1002200002E3000011241FBECFEFDAE0DEBFCDBF36
:1002300015E0A0E0B1E0E2E8F9E602C005900D9219
:10024000AC31B107D9F72AE0ACE1B5E001C01D92AD
:10025000AE30B207E1F70E9408190C94BF340C9439
:10026000000020910401E82FF0E0892F90E04CE09D
:10027000222351F0489F9001499F300D1124E20F35
:10028000F31FE456FE4F09C0489F9001499F300D6F
:100290001124E20FF31FE459FE4F9491892F8F70C0
:1002A00092959F700895CF93C82FCB010E94310182
:1002B000282F30E080E1989FA0011124422B532B7E
:1002C0004038510519F480E090E021C09770E92F83
:1002D000F0E088E0C89FE00DF11D112484E0EE0FEE
:1002E000FF1F8A95E1F7E20FF31FEE0FFF1FE050AB
:1002F000FC4825913491C9018B7F833E910531F4EF
:1003000080911F05882311F020E030E0C901CF91D2
:1003100008950F931F93CF93DF938C01D62FC42F93
:10032000613029F0A8F0643009F45CC06EC0FC01B3
:100330008281882309F453C00E94512B81FF06C09B
:100340000E94512B80FD02C085E342C089E240C07B
:10035000423009F148F4442389F0413061F584E3E7
:1003600080931C0588E225C04430F9F0C8F0453080
:1003700011F581E380931C058AE21BC00E94512B7A
:1003800082FF02C08DE301C089E280931D0585E3F1
:1003900080931C0510C088E380931C0587E309C087
:1003A00088E380931C0582E504C083E380931C05E9
:1003B0008FE080931D05F8018281882381F00E94DF
:1003C000512B85FF03C080911C0502C080911D0543
:1003D00080931E0580911E050E94102114C08091FB
:1003E0001E050FC0FC018281882351F00E94512B11
:1003F00081FD0BC00E94512B85FD07C08CE2ECCF24
:100400008CE20E9482210E948E2BF8018281882337
:10041000C9F1D33049F118F4D23069F033C0DA3081
:1004200051F1DB3079F58C2F90E0DF91CF911F9166
:100430000F910C94C4180E94512B80FF03C00E949E
:100440001B2C06C00E94512B8C7011F00E94B71516
:100450008FEF0E94AE218FEF0E94B521DF91CF91E7
:100460001F910F910C94CE2190911F0581E0892757
:1004700080931F0507C08C2FDF91CF911F910F91A3
:100480000C949A09DF91CF911F910F91089580E00C
:1004900090E008952091040190E02223A9F08C308F
:1004A000910508F040C0FC01EA5AFF4F0C94CD3092
:1004B0008FB18095817008958FB113C08FB18695EB
:1004C00081702EC08CB124C08C30910560F5FC0188
:1004D000EE59FF4F0C94CD3089B11AC089B112C0CA
:1004E00083B1829581701CC083B117C083B110C0E5
:1004F00086B10EC086B106C08CB182FB882780F918
:100500000FC08FB18095881F8827881F08958FB1ED
:1005100086FB882780F904C08FB185FB882780F986
:1005200091E08927089580E008959091040199232E
:1005300081F0813041F028F0823039F0833039F099
:100540000895879A0895579A0895229A0895239AAC
:100550000895813041F028F0823039F0833039F04D
:100560000895849A0895819A0895809A08956E9ABC
:100570000895E1EFFFE7E49181E0EE3B09F480E0CC
:1005800080930401089580910401882319F084E385
:1005900091E002C08EE391E00C945216E82FF0E057
:1005A000EE0FFF1FEB5AFA4F808191810895089555
:1005B00080910401882331F08798579884B1837F14
:1005C00084B9089580B38C7E80BB6E98089585B7FA
:1005D000806885BF85B7806885BF0E9414065C9AD5
:1005E000549A80E590E00E94DD050E9435090E9442
:1005F000B62B8FEC97E00197F1F700C000000E9446
:10060000D80280910401882369F080B38C7880BB84
:1006100081B3836781BB8EB184648EB98DB18B7BCE
:100620008DB90EC080B38F7180BB81B3806E81BBEA
:10063000729A6A988AB18F738AB98BB1806C8BB9C0
:1006400087B18F7387B988B1806C88B984B18F788E
:1006500084B985B1806785B90895CF92DF92EF9212
:10066000FF920F931F93CF93DF93809154058111D5
:100670000AC080915205909153050E94CB2B909314
:100680002105809320058091200590912105892BDB
:1006900009F490C080915405811106C00E94BF2BBF
:1006A000909353058093520500E010E05CE0E52E46
:1006B000CC24C394D12CF0905405CF2DD0E0802FC2
:1006C0000E944A0220912005EC9EF001ED9EF00D63
:1006D0001124E00FF11FEE5DFA4F9081990F982BD6
:1006E0002150E1F7EC9EF001ED9EF00D1124E00F9A
:1006F000F11FEE5DFA4F90839601002E02C0220F8B
:10070000331F0A94E2F79F3099F040F4913081F062
:10071000F0F0933069F0973061F50AC09F3341F0F3
:1007200018F49F3131F504C09F3711F09F3F09F550
:10073000FE01EE0FFF1FEB5AFA4F80819181A90154
:1007400048235923452BA9F4282B392B10C0FE012F
:10075000EE0FFF1FEB5AFA4F80819181A9014823C8
:100760005923452B31F020953095282339233183A7
:1007700020830F5F1F4F0C30110509F09CCF0E94A2
:10078000D802CC0FDD1FCB5ADA4F88819981892B93
:1007900021F01092CD071092CC0781E08F0D8430AC
:1007A00018F48093540502C01092540580915405AA
:1007B0000E94950281E0DF91CF911F910F91FF90F0
:1007C000EF90DF90CF90089580910401882331F05D
:1007D000879A579A84B18C6084B9089580B38361F5
:1007E00080BB6E9A08950F931F93CF93DF938091F0
:1007F0001B018A3041F08091200181114BC0809112
:10080000040A811147C080910401882311F0579890
:1008100001C0819800E010E0C0E0D0E0802F0E948D
:100820004A0290E0002E02C0880F991F0A94E2F756
:10083000C82BD92B0F5F1F4F0C30110579F720976C
:1008400011F080E037C00E94D80281E00E9495023A
:1008500000E010E0802F0E944A0290E0002E02C0CB
:10086000880F991F0A94E2F7C82BD92B0F5F1F4FEF
:100870000C30110579F7C039D10519F780911B01AA
:100880008A3021F08AE190E00E94731881E0809321
:100890001F0110C0C0E08C2F0E944A02882331F053
:1008A00080911B01843091F381E004C0CF5FCC3094
:1008B00091F7C7CFDF91CF911F910F910895E0E09D
:1008C000F6E7E491E0936105E2E0F4E78591959124
:1008D000A591B491EDE5F5E081839083A28308951D
:1008E0008091360980FD06C02F9A80910401811104
:1008F00001C05C9A20915F0530E040915D0550E0B9
:1009000060915E0570E080E390E00E946E0581E0FA
:1009100080936005089520E030E040E050E060E022
:1009200070E080E390E00E946E0510926005809177
:10093000360980FD06C02F9880910401811101C005
:100940005C9808958091600581110C9470040C945A
:100950008B0490916105981308C09091600581E027
:100960008927809360050C94A20408952091610565
:1009700090EF920F933060F490E0205102C0959573
:1009800087952A95E2F780FD0C9470040C948B04F3
:100990000895809161058150873010F40E948B0486
:1009A0008091360980FF08C08E73883029F40E9438
:1009B000590781E080933706089580916105895039
:1009C000873010F40C948B040895209161059BEE00
:1009D000920F983060F490E0255102C0959587956C
:1009E0002A95E2F780FD0C9470040C948B04089512
:1009F00030910401242F2095332321F03BB1232390
:100A00003BB103C035B1232335B1432B3FB7F89435
:100A100050910401FC01680F791FE617F70709F4EC
:100A200039C081915523D9F098E04BB987FF2BB994
:100A3000880F000000C02BB9000000C000C000C03B
:100A400000C000C000C000C000C000C000C000C0A6
:100A500000C000C000C000C09A9539F7DECF98E012
:100A600045B987FF25B9880F000000C025B90000EF
:100A700000C000C000C000C000C000C000C000C076
:100A800000C000C000C000C000C000C000C09A95F7
:100A900039F7C3CF3FBF08959C018091040188239B
:100AA00021F09AB1942B9AB903C094B1942B94B9C4
:100AB000CB01880F991F680F791FC9010E94F804A4
:100AC00085E88A95F1F7000008952091040122231A
:100AD00011F040E401C048E00C944C05E82FE29589
:100AE000E37090E3E99FF00111248F70EE59FA4F03
:100AF000E80FF11D60A34083208B81E080932206E4
:100B00000895880F8093200960932109409322095A
:100B100088EF80930409809104098F3F39F040E009
:100B200063E080E299E00E942A06F5CF0895CF9312
:100B3000DF93C82FD62F45EC6EEF0E9481054D2F15
:100B40006DEF8C2FDF91CF910C9481050F931F9344
:100B5000CF93DF93C82F8B0161E070E090E00E949B
:100B60009705CC0FC0932009E80110E008EF10931F
:100B7000210980E090E0FE01E80FF91F2081FC01CF
:100B8000E05EF64F2283019680319105A1F7009334
:100B90000409809104098F3F39F040E062E180E26E
:100BA00099E00E942A06F5CF105F6096103CF9F696
:100BB000DF91CF911F910F910895CF93DF93C82FAD
:100BC00063E00E94970540E060E08C2F0E94810561
:100BD00041E060E08C2F0E94810540E861E08C2FAD
:100BE0000E9481058FE19EE40197F1F700C00000AB
:100BF00060E08C2F0E949705D0E04FE36D2F8C2F83
:100C00000E948105DF5FD931C1F7DF91CF9108954F
:100C100080912206882339F01092220662E675E060
:100C200080E50C94A6050895E3E0F9E010828FEFCB
:100C3000818312821092B90082E08093B80085E02F
:100C40008093BC000895909103099D7F81E009F095
:100C500080E008951F93CF93DF9300D01F92CDB70C
:100C6000DEB7182F653110F081E048C04A836983F0
:100C70009B830E9423064A8169819B81811105C063
:100C800082E08A95F1F700C0F1CF40930509E12F8A
:100C9000F92FA8E0B9E070E0CD018850994086179F
:100CA00097071CF481918D93F7CF7093350960936A
:100CB00034091092070910920609809103098230C5
:100CC000B1F481E0809303098091060990910709AE
:100CD0009C012F5F3F4F3093070920930609FC01C9
:100CE000E85FF64F80818093BB0085E804C081E017
:100CF0008093030985EA8093BC0080E00F900F90F9
:100D00000F90DF91CF911F9108951F920F920FB610
:100D10000F9211242F933F934F938F939F93EF93B1
:100D2000FF938091B900887F883239F180F4803157
:100D300009F49FC030F4882309F49FC08830E9F09B
:100D4000A3C08831B9F0803209F480C09DC08034DE
:100D500091F138F4803309F479C0883309F476C00E
:100D600093C08035A9F1883509F455C0883409F05D
:100D70008BC06CC083E080930309209106093091F9
:100D800007098091340990913509281739070CF02B
:100D900053C080910609909107099C012F5F3F4F36
:100DA0003093070920930609FC01E85FF64F808124
:100DB0008093BB002BC084E08093030980911C09C1
:100DC00090911D09019720911E0930911F0916C0AD
:100DD00080911E0990911F099C012F5F3F4F309316
:100DE0001F0920931E094091BB00FC01E151F74F00
:100DF000408380911C0990911D090197281739079C
:100E00002CF488EF8093040985EC3CC088EF809334
:100E1000040985E837C080911E0990911F099C0143
:100E20002F5F3F4F30931F0920931E092091BB0075
:100E3000FC01E151F74F208380910509882311F0CF
:100E40008FEF0BC0109203098FEF10C0809105093E
:100E5000882339F08091B900887F8093040985EA5E
:100E600011C0109203098091B900887F8093040912
:100E700008C082E08093030907C010920409109211
:100E8000030985E98093BC00FF91EF919F918F91B9
:100E90004F913F912F910F900FBE0F901F9018957B
:100EA000549A80910401882311F0279A0895219A79
:100EB00008952F9A80910401882311F05C98089579
:100EC0005C9A299808952F9880910401882311F045
:100ED0005C9A08955C98299A0895CF93DF9300D087
:100EE00000D01F92CDB7DEB7FA0193E0899F900141
:100EF0001124232F330F330B1C821982982F990F43
:100F0000890F8150869FC00111249D839A83691B9C
:100F10006B83DE01A20FB31F13968C918183DE01D8
:100F2000A20FB31F12968C918083DE01A20FB31F14
:100F300011968C9182830F900F900F900F900F90CD
:100F4000DF91CF9108950F931F93CF93C82FE62F72
:100F5000862F90E08C0F911D840F911D833292405B
:100F6000D4F0A5E0CA9FC001112407E010E0B80149
:100F70000E94B930C62FB5E0EB9FC0011124B80123
:100F80000E94B930E62FF5E04F9FC0011124B8014F
:100F90000E94B930462FD9011196CC931197EC934A
:100FA00012964C93CF911F910F9108950F931F9319
:100FB000CF93DF9300D000D01F92CDB7DEB770E0A3
:100FC000869FF001879FF00D1124EF2FFF27042F3C
:100FD00010E0E09FD001E19FB00DF09FB00D112413
:100FE000E0E0F1E0E61BF70BE09FB001E19F700D40
:100FF000F09F700D11247C837983872F8B0F8D8355
:101000008A834B1B4B83892F90E063E070E00E9442
:10101000A530DE01A80FB91FFD0111964C91628128
:1010200083810F900F900F900F900F90DF91CF91D1
:101030001F910F910C94A3078AE090E00C94E53384
:10104000AB01BC018AE090E00C94033461E871E0EC
:1010500080E090E00C94200880E9E0E5F9E0DF0111
:101060001D928A95E9F782E1EEE3F9E0DF011D9236
:101070008A95E9F708950F931F93CF93DF9380919B
:10108000360980FF0E942C0802E519E0C0E0D6E096
:1010900080911F01811104C080916005882311F0A7
:1010A000CC3091F08C2F6D2F0E949930E82FF0E01A
:1010B000E75FFE4F8081F8012081329740813196B1
:1010C0006081890F0E946E05CF5F0D5F1F4FC03397
:1010D000F9F666E070E08EE399E0DF91CF911F9121
:1010E0000F910C9465052091360920FF1DC020EE5C
:1010F00039E00E94D607A0E5B9E0EEE3F9E080E030
:101100002091E0093091E1094091E209863018F41C
:101110002083318342832D933D934D938F5F33968C
:10112000803371F70C943B0808950F931F93CF936E
:10113000DF932091360920FF2FC0142F062FC92FCF
:10114000D82F2E73223011F40E9473089D2F929590
:10115000990F990F907C809136098F73892B80931A
:101160003609C295CC0FCC0FC07CD695D695CD2B29
:10117000C0933709009338091093390960913609F3
:10118000709137098091380990913909DF91CF9199
:101190001F910F910C942008DF91CF911F910F9117
:1011A0000895CF939091360990FF5DC0917C811195
:1011B00002C0906308C0893110F0926004C0282FEB
:1011C0002F71220F922B90933609C82F6091360908
:1011D0007091370980913809909139090E9420084F
:1011E0008091360986958F7111F00E945907809180
:1011F0003609982F9E739230B9F48295869586951C
:10120000837090913709292F220F220F40913909BD
:1012100060913809822B92959695969593700E94CD
:101220009508CF910C943B08C23051F480E3EFE76E
:10123000F6E0DF011D928A95E9F7CF910C942C0816
:10124000C43059F46091C2087091C3088091C408F9
:101250009091C508CF910C94C90487EF8C0F823010
:1012600010F410923806CF910895809104018823DC
:1012700059F01092090188E080930A0180E280937E
:101280000F0188E2809310010E945D2F811104C03C
:101290000E94432F0E9426080E941C086093360972
:1012A0007093370980933809909339096E736E33C0
:1012B00061F40E9426080E941C086093360970930E
:1012C000370980933809909339090E94500780911B
:1012D000360980FF04C086958F710C94D1080E9456
:1012E0003B080C94630780913609982F909590FBEA
:1012F00080F98093360960913609709137098091A1
:101300003809909139090E9420088091360980FFA0
:1013100004C086958F710C94D1080E943B0880917F
:10132000040A843031F080916005811102C00C9470
:1013300063070895CF92DF92EF92FF920F931F936E
:10134000CF93DF93C82ED0913609D295D695D695F6
:10135000D370D09037098D2D880F880FD82BD29459
:10136000D694D69493E0D922E09038094091390977
:10137000042FC0FE02C0CFEF01C0C1E00E94512B7C
:1013800081FDC1954C2D50E04930510508F05EC0FB
:10139000FA01E259FF4F0C94CD30DF91CF911F91AC
:1013A0000F91FF90EF90DF90CF900C947309909184
:1013B00036099695892F8F718C0F0E94D10846C0EF
:1013C000209136092295269526952370309137096C
:1013D000432F440F440F842F822B932F9295969581
:1013E000969593709D5F24E1C202800D911D11249A
:1013F00060E073E00E94B930D82FD92E2AC08091C6
:10140000380991E1C90270011124E80EF11C2FEF97
:10141000E216F10409F01CF4F7FC29C01AC0EE240E
:10142000EA94F12C16C08091390991E1C902A0011A
:1014300011248A01080F111D0F3F110509F01CF43A
:1014400017FD18C006C00FEF10E003C022E02C15F6
:10145000A0F4402F6E2D8D2F9D2DDF91CF911F91E8
:101460000F91FF90EF90DF90CF900C949508E12CB6
:10147000F12CEFCF00E010E0ECCFDF91CF911F9186
:101480000F91FF90EF90DF90CF900895CF93DF936F
:10149000C82FD62F262F30E0280F311D240F311DE5
:1014A00023323240D4F025E0829FC001112427E08E
:1014B00030E0B9010E94B930C62F55E0D59FC00178
:1014C0001124B9010E94B930D62F55E0459FC001C3
:1014D0001124B9010E94B930462F20E030E0F90113
:1014E000E25CF64FC183D08342832D5F3F4F2231B0
:1014F0003105A9F720E030E0F901E05BF64FC18348
:10150000D08342832D5F3F4F20393105A9F7DF910A
:10151000CF910C943B08BF92CF92DF92EF92FF9253
:101520000F931F93CF93DF9300D000D000D0CDB79F
:10153000DEB720910D0ADC013C91303409F07DC00A
:101540008C01FC0181818B3BB9F58EE1E3EEF9E082
:10155000DF011D928A95E9F7B12C7F0185E4C82E41
:1015600081E0D82EF8018281B81608F5F7010190C4
:101570000020E9F73197E35EF940E0933606D801A1
:10158000AB0DB11D13968C911F928F93DF92CF926A
:10159000FF27ED51F64FFF93EF930E943C31B39438
:1015A0000F900F900F900F900F900F90DBCF83EE66
:1015B00099E00E94521641C0233021F412968C917A
:1015C0000E94D10880910D0A843031F4F8014381E2
:1015D000628181810E94460A80910D0A853069F5F9
:1015E000D80111962C911197263070F430E01496A2
:1015F0004C91149713966C91139712968C910E94AC
:10160000A3070E943B0819C02F3FB9F48E81886060
:101610008E83F8018381928199838A8381E08B8311
:1016200081E090E09D838C83CE0101960E94272269
:101630001B82CE0101960E94272226960FB6F894AF
:10164000DEBF0FBECDBFDF91CF911F910F91FF90F5
:10165000EF90DF90CF90BF9008950F931F93CF939B
:10166000DF93C82FD62F8091360980FF7EC09091DE
:101670000401911106C0C33021F4673011F4DAE09F
:10168000C0E08E73843089F52F9906C08091C80719
:10169000811102C00E9459070D2F10E08CE0C89FF5
:1016A000000D111D1124F801E158F94F8FE38083DB
:1016B0000E941F3160E071E00E94B930F801E25BE6
:1016C000F94F8083D63010F025E001C022E0C3300E
:1016D00008F0C2E02C1B30E0F901E85BF94F9FE312
:1016E0009083F901EE5BF94F8083809136098E7308
:1016F0008630D9F52F9906C08091C807811102C0A4
:101700000E94590720913906822F90E0019683703C
:101710009927FC01E25CF94F30813E3F7CF4FC01EB
:10172000E65CF94F80818E304CF081E0820F84308E
:1017300018F48093390602C0109239068091390658
:1017400090E0FC01E65CF94FD083FC01E25CF94FCC
:10175000D0830E941F31E0913906F0E0E25BF94F3F
:1017600060E071E00E94B9308083DF91CF911F91DA
:101770000F910895CF93C82FE0913506F0E0E45320
:10178000FE4F4491809136098295869586958370A7
:1017900090913709292F220F220F60913809822B4F
:1017A00092959695969593700E94730830910801D2
:1017B00020913506C39F200D1124209335062C1748
:1017C00030F08C2F90E0820F911DCF971CF0319557
:1017D00030930801CF910895DF92EF92FF920F931B
:1017E0001F93CF93DF932EE4E22E26E0F22E00E546
:1017F00019E0CFE7D6E080E0DC2E90E3D90EE88157
:10180000EE2369F0F0E0E453FE4F6491A801F70184
:1018100080810E946D0788818150888381E02196B4
:10182000FFEFEF1AFF0A0D5F1F4FDC12E8CF92E4C3
:10183000E92E96E0F92E0EE319E0C8E4D6E0DC2E9E
:10184000E6E0DE0EE881EE2369F0F0E0E453FE4FBF
:101850006491A801F70180810E946D078881815001
:10186000888381E02196FFEFEF1AFF0A0D5F1F4F7B
:10187000DC12E8CF811113C0809136098E73843059
:1018800071F48091040A843051F0809160058111D7
:1018900006C080911F01811102C00E946307DF9181
:1018A000CF911F910F91FF90EF90DF900C943B0828
:1018B0006F927F928F92DF92EF92FF920F931F931E
:1018C000CF93DF9380913406109234068F3F09F452
:1018D000C3C00E942C088EE4E82E86E0F82E0AE3AE
:1018E00016E0CEE3D6E0DC2E84E0D80E40EE59E0E0
:1018F0006FEFF70181917F010E946D0788818E3F14
:10190000BCF1F3E08F02A001112420E030E087FD5C
:101910000EC0F901E40FF51FE05BF64F6090E0099F
:101920007090E1098090E2096082718282822C5D70
:101930003F4F2039310559F7811118C02091E00936
:101940003091E1094091E20920934409309345091F
:10195000409346092093410930934209409343093B
:1019600020933E0930933F0940934009815088837A
:10197000F80180818E30C4F5F3E08F02A0011124BC
:1019800020E030E08C3074F4F901E40FF51FE05BE7
:10199000F64F6090E0097090E1098090E209608262
:1019A000718282822C5D3F4F2039310559F78B308F
:1019B000C1F42091E0093091E1094091E2092093BE
:1019C0004D0930934E0940934F0920934A093093B3
:1019D0004B0940934C0920934709309348094093A1
:1019E00049098F5FF801808321960F5F1F4FDC123A
:1019F0007DCF8091390690E0FC01E25CF94F2081B7
:101A00002E3FF4F4FC01E65CF94F80818E30C4F087
:101A10008091040A8430A1F080916005811110C08A
:101A200080911F0181110CC0DF91CF911F910F9107
:101A3000FF90EF90DF908F907F906F900C946307F2
:101A4000DF91CF911F910F91FF90EF90DF908F90DA
:101A50007F906F900C943B08DF91CF911F910F9175
:101A6000FF90EF90DF908F907F906F900895DF92BE
:101A7000EF92FF920F931F93CF93DF930E942C0856
:101A800080913706882309F482C01092370680912E
:101A9000C2089091C308A091C408B091C50827E07E
:101AA00030E0D22EAC01BD01022E04C076956795C0
:101AB000579547950A94D2F7452B462B472B59F05B
:101AC00087E028130CC020EE39E046EB66EB86EB8E
:101AD0000E94A30711C02150310919F749C0C9015B
:101AE000019720EE39E04FEF6FEF9695982F8827FA
:101AF000979587950E94D60700E519E0C0E0E12C94
:101B0000F12CD0E06D2F7C2F8D2D0E945301029778
:101B100060F08091E0099091E109A091E209F8015B
:101B2000EE0DFF1D80839183A283DF5F83E0E80ECB
:101B3000F11CDC3039F7CF5F0C5D1F4FC430F9F674
:101B4000EEE3F9E08091E0099091E109A091E209CA
:101B500081939193A19389E0E035F80799F7DF919C
:101B6000CF911F910F91FF90EF90DF900C943B0865
:101B70000E943B088091040A843049F0DF91CF91A4
:101B80001F910F91FF90EF90DF900C946307DF910E
:101B9000CF911F910F91FF90EF90DF900895EF92FA
:101BA000FF920F931F93CF93DF93209133062F5F04
:101BB000422F50E090E0880F991F841795071CF082
:101BC0002093330644C0109233060E941F317C01DB
:101BD0000E941F31EC010E941F3166E070E00E94FC
:101BE000B9308C01C70164E070E00E94B930282F41
:101BF000CE016CE070E00E94B930C82F9CE0299FB4
:101C0000C00D1124D0E0FE01E158F94F80818230EF
:101C100058F48FE380830E941F31C25BD94F60E08C
:101C200071E00E94B9308883E801DD27FE01E85B9E
:101C3000F94F8081823058F48FE380830E941F31F6
:101C4000CE5BD94F60E071E00E94B9308883DF91AC
:101C5000CF911F910F91FF90EF900C94EC0BEF92AE
:101C6000FF920F931F93CF93DF93909132069F5F64
:101C700090933206891708F07FC00E942C080E94BA
:101C80001F316CE070E00E94B930EC01DD27FE01ED
:101C9000E158F94F808181110DC085E080830E9459
:101CA0001F31C25BD94F60E071E00E94B930888378
:101CB000109232060FE716E0C0E0D0E054E0F52EB7
:101CC00065E0E62EF8018081882309F446C040EEE5
:101CD00059E06FEFFE01E25BF94F80810E946D07D2
:101CE000F80120818F2D821B8430C0F4AE01ECE01E
:101CF0008E9F400D511D1124CA01FA01EE0FFF1FE6
:101D00008E0F9F1FFC01E05BF64F8091E0099091E0
:101D1000E109A091E20980839183A2838E2D821B29
:101D20008430C0F4AE01ECE08E9F400D511D1124B3
:101D3000CA01FA01EE0FFF1F8E0F9F1FFC01E05B2F
:101D4000F64F8091E0099091E109A091E20980832A
:101D50009183A2832150F801208321960F5F1F4FAA
:101D6000CC30D10509F0AECFDF91CF911F910F910B
:101D7000FF90EF900C943B08DF91CF911F910F9152
:101D8000FF90EF9008956F927F929F92AF92BF92D3
:101D9000CF92DF92EF92FF920F931F93CF93DF9337
:101DA000809131068F5F80933106882309F4C2C089
:101DB00080E9E0E5F9E0DF011D928A95E9F780917D
:101DC0003806882341F080913006882369F18150DC
:101DD00080933006AFC084E08093380684E180931E
:101DE00030060EE416E0CFE7D6E07EE0972EA12C79
:101DF000BB24B394FEE3CF2EF9E0DF2EA2E1EA2E5E
:101E0000FC2EB4E0FB0E99920E941F31B5010E9496
:101E1000B930F80181938F01D601EE2D1D92EA951C
:101E2000E9F7FC12F0CFCFCF4FE7A42E46E0B42E57
:101E30005EE4E52E56E0F52EE50100E010E064E0FA
:101E4000C62ED12C9C2E9A1888818F3018F01092B3
:101E5000380670C0882309F454C040EE59E06FEF93
:101E6000D7018C910E946D072CE08881B22FB81B9E
:101E7000BC30A0F4F801EB0FF11DCF01EE0FFF1FF6
:101E80008E0F9F1FFC01E05BF64F8091E00990915F
:101E9000E109A091E20980839183A2832F5F2F3013
:101EA00021F70E941F313C010E941F319C01C30198
:101EB000B6010E94B930981621F1C901B6010E94FD
:101EC000B9309816F1F0888181508883811119C04A
:101ED00080913806843099F4EEE3F9E02091E0092E
:101EE0003091E1094091E20921933193419349E016
:101EF000E035F40799F781508093380602C08111CC
:101F0000FACF2196045F1F4F5FEFE51AF50A003301
:101F1000110509F097CFDF91CF911F910F91FF909D
:101F2000EF90DF90CF90BF90AF909F907F906F9099
:101F30000C943B08DF91CF911F910F91FF90EF9090
:101F4000DF90CF90BF90AF909F907F906F9008955B
:101F50002F923F924F925F926F927F928F929F92B9
:101F6000AF92BF92CF92DF92EF92FF920F931F93A7
:101F7000CF93DF93CDB7DEB72A970FB6F894DEBFC5
:101F80000FBECDBF80912F068F5F80932F068823D1
:101F900009F413C1809138068823C9F10E941F31CA
:101FA00004E010E0B8010E94B9304C010E941F31DA
:101FB000B8010E94B9305C010E941F31B8010E9433
:101FC000B9306C010E941F31B8010E94B9300AE398
:101FD00016E02EE336E03A872987612C712C412CDC
:101FE000512CE12CF12C212CE3E03E2EF401FF27B3
:101FF000FA83E983950133273C832B83FC01FF2778
:10200000FE83ED839601332738872F8315C084E044
:102010008093380610923E068BE080933A06109229
:102020003F0680933B061092400680933C06109238
:10203000410680933D06B2CF89859A858E5396409E
:102040006C01E985FA85A080F801B080BA14C4F467
:1020500080E090E093012D5F3F4FF901E80FF91FF9
:10206000E05BF64F10821182128203968E31910549
:10207000A1F7E985FA8510822BE0F80120836DC075
:10208000209136092295269526952370309137099F
:10209000432F440F440F842F822B932F92959695B4
:1020A00096959370840D951DB1010E94B9304C0135
:1020B00089819A81C816D90621F1EF81F885CE165B
:1020C000DF06F9F0A7FC1DC097012A0D311DA7FC02
:1020D0003A95C901880F991F280F391F205B364F89
:1020E0004FEF60913809C4010E94D60781E08A0D44
:1020F000E985FA8580838F3024F0109238060E949B
:102100002C082B813C81C216D30639F18D819E812A
:10211000C816D90611F11B1404F5C401845D9E4F45
:1021200097012B0D311DB7FC3A95A901440F551F9E
:10213000240F351F205B364FB1010E94A5304FEFB1
:10214000609138090E94D607BA94F801B082B110A4
:1021500004C0109238060E942C0829853A852F5F0A
:102160003F4F3A8729870F5F1F4F3CE0E30EF11C7A
:1021700080E8480E511C94E2690E711CE0E96E166D
:10218000710409F059CF2A960FB6F894DEBF0FBE3E
:10219000CDBFDF91CF911F910F91FF90EF90DF9016
:1021A000CF90BF90AF909F908F907F906F905F90F7
:1021B0004F903F902F900C943B082A960FB6F894BE
:1021C000DEBF0FBECDBFDF91CF911F910F91FF906A
:1021D000EF90DF90CF90BF90AF909F908F907F90C7
:1021E0006F905F904F903F902F900895CF93C82F9E
:1021F000E6E3F9E04381628180912D0690912E06FD
:102200000E94730820912D0630912E06C90143E0EB
:10221000C49F800D911D112460E073E00E94A530E1
:1022200090932E0680932D06CF9108956F927F9202
:102230008F92BF92CF92DF92EF92FF920F931F93F4
:10224000CF93DF93D82FC82FC69570E5E72E79E09E
:10225000F72E00E010E0B12CC12CE3E0DE2E8091DF
:102260002B0690912C06800F911FB6010E94A5307D
:1022700020EE39E040913909609138090E94D60773
:1022800080E090E0F701E80FF91F2091E00930911C
:10229000E1094091E20920833183428384968039A9
:1022A000910581F7BB2071F08BE0B81669F0B3940B
:1022B000005D1F4F83E0E80EF11C003482E0180738
:1022C00071F621C090E001C093E0492F50E04E5FCD
:1022D0005F4F292F092E000C330B421753073CF395
:1022E000F901EE0FFF1F2E0F3F1FF901E25CF64FC1
:1022F0006090E0097090E1098090E209608271824B
:1023000082829F5FE6CF0E943B0820912B0630918E
:102310002C064C2F50E0D0FF09C0CA0144E0880FC2
:10232000991F4A95E1F7820F931F09C0C9019D5F6C
:1023300024E0440F551F2A95E1F7841B950B60E0BC
:1023400073E00E94A53090932C0680932B06DF91BA
:10235000CF911F910F91FF90EF90DF90CF90BF90A2
:102360008F907F906F900895CF92DF92EF92FF92BF
:102370000F931F93CF93DF9390912A069F5F282F8F
:102380002695291758F090932A06DF91CF911F9137
:102390000F91FF90EF90DF90CF900895C82F10928B
:1023A0002A060E942C08C0FF03C0FF24FA9402C032
:1023B000FF24F39456E0D52EE12C00E310E0C0E0BA
:1023C000D3E0C090070197013203C00111248C0DA6
:1023D000911DC7FC9A95C096B8010E94B9309C0126
:1023E0003327C901880F991F280F391F205B364FEB
:1023F00080913609829586958695837090913709EC
:10240000692F660F660F462F482B592F5295569508
:1024100056955370CA0162E3E69E800D911D11240A
:10242000BE010E94B93040913909609138090E947B
:10243000D607E394DA94D110C4CF8C2D8F0D81335D
:102440001CF01092070104C087FD80E38093070110
:10245000DF91CF911F910F91FF90EF90DF90CF9080
:102460000C943B08CF92DF92EF92909129069F5FE8
:10247000891718F0909329067FC0109229060E94B0
:102480002C0840E050E090E0809106019A01280F6E
:10249000311D87FD3A952C30310508F03FC0840F7F
:1024A00093E0899FB001112420E030E0F901E60FAC
:1024B000F71FE05BF64FC090E009D090E109E09093
:1024C000E209C082D182E2822C5D3F4F2039310582
:1024D00069F7882321F08B3021F091E01FC080E064
:1024E00001C083E0682F70E06E5F7F4F282F30E0DF
:1024F0006217730794F3F901EE0FFF1F2E0F3F1FB2
:10250000F901E25CF64FC090E009D090E109E0905B
:10251000E209C082D182E2828F5FE8CF4F5F5F4FD6
:102520004630510509F0B0CF91110E943B089091BF
:10253000050180910601890F809306018B5F81312F
:10254000D8F09195909305018091270690912806E7
:10255000889660E073E00E94A530909328068093EF
:10256000270620EE39E04091390960913809EF9053
:10257000DF90CF900C94D607EF90DF90CF90089526
:102580008091360980FF2DC02F9B2BC086958F71BF
:10259000E82FF0E03297E731F10548F5E958FF4FB1
:1025A0000C94CD300C94EC0B0C94580C0C94370D0F
:1025B00084500C94CF0D86500C942F0E0C94C30EA7
:1025C0000C94A80F89500C94BA0B8B500C94F610F5
:1025D0008D500C94161183510C94B41187510C94A6
:1025E000321280916005811102C00C946307089536
:1025F0000C946307109203090E9435090C94A204FD
:10260000CF93DF9300D000D01F92CDB7DEB7662303
:1026100059F0642F852F0F900F900F900F900F900F
:10262000DF91CF910C942D0B0F900F900F900F9086
:102630000F90DF91CF9108952F9B16C080912506B2
:10264000909126060E94CB2B899770F00E94BF2B99
:1026500090932606809325068091C807811102C0B9
:102660000E94C0120C94080608958091C807882320
:10267000B9F180912306909124060196813D27E0CF
:10268000920728F4909324068093230608951092CD
:102690002406109223068091040A8430E9F00E94F7
:1026A0002C080E943B0880910401882311F05C9A59
:1026B00001C0299A20E040E060E880E30E946E05B6
:1026C00085B1805885B98091040181114DC09BB1BD
:1026D00080E189278BB908951092C8070C94FA12EB
:1026E00080911F01882309F43FC02F9A8091040133
:1026F000811101C05C9A8091230690912406892B58
:1027000031F420E040E060E080E30E946E058091BB
:102710002306909124060196909324068093230625
:102720008835924069F48091CA07811103C040E066
:1027300020E802C040E820E060E080E30E946E05EF
:102740002091CA078091230690912406211109C087
:10275000803B24E0920729F410922406109223066D
:102760000895883B9B40C1F308952091B006809165
:10277000B106821759F030E0F901EE54F94F80812B
:102780002F5F3F4F2093B00690E008958FEF9FEFAB
:1027900008959091C80095FFFCCF8093CE000895D6
:1027A0001F920F920FB60F9211242F933F934F93C6
:1027B0008F939F93EF93FF938091B10690E09C01DC
:1027C0002F5F3F4F4091B006421741F03091CE004D
:1027D000FC01EE54F94F30832093B106FF91EF9145
:1027E0009F918F914F913F912F910F900FBE0F901E
:1027F0001F9018958091C10708950895F89487E671
:102800008093CC001092CD00E9ECF0E080818069EB
:102810008083808188608083EAECF0E0808180831F
:10282000E8ECF0E080818260808378940895F894E9
:102830008CE08093CC0078940895EF92FF920F93F0
:102840001F93CF938C010E94BF2B7C01C0E0C70176
:102850000E94CB2B80179107F0F40E94B5139C01C6
:102860002F3F8FEF3807A9F02D3099F04C2F50E013
:102870002A3051F4C23030F0FA01EF54F84F808121
:102880008F3449F02FE530E0FA01ED54F84F208302
:10289000CF5FCD30E0F2EC2FF0E0ED54F84F108236
:1028A00083EB97E0CF911F910F91FF90EF900895E8
:1028B000CF93DF93EC018991882319F00E94C9130B
:1028C000FACFDF91CF9108950E94581484E690E0EA
:1028D0000C941D149C012F5631092230310528F02B
:1028E0002A5731092230310588F42091C4073091EC
:1028F000C507232B31F429E732E03093C507209335
:10290000C4079093C3078093C20704C01092C50701
:102910001092C4072091C607211124C09F938F9362
:1029200088E491E09F938F9383EE99E09F938F9338
:102930000E943C3183EE99E00E94641442E050E032
:1029400068E172E00E942F310F900F900F900F906E
:102950000F900F90892B19F41092C607089581E00B
:102960008093C6070895CF93DF93EC018091C6074B
:10297000811141C08C81282F082E000C330B3F930E
:102980008F938B81282F082E000C330B3F938F934E
:102990008A81282F082E000C330B3F938F93898157
:1029A000282F082E000C330B3F938F9380E691E085
:1029B0009F938F9383EE99E09F938F930E943C3176
:1029C00083EE99E00E94641442E050E068E172E016
:1029D0000E942F312DB73EB7245F3F4F0FB6F894BA
:1029E0003EBF0FBE2DBF892B19F41092C60703C03E
:1029F00081E08093C6078091C607811125C0888138
:102A00001F928F9380E891E09F938F9383EE99E0DC
:102A10009F938F930E943C3183EE99E00E9464144F
:102A200042E050E068E172E00E942F310F900F9079
:102A30000F900F900F900F90892B19F41092C607EA
:102A400003C081E08093C607DF91CF9108952FEFF7
:102A500032E547E0215030404040E1F700C000003F
:102A60000C946414CF93DF932091CA07222309F4B6
:102A700056C02091C607211152C0EC0189E991E0AE
:102A80000E9458148F811F928F938E811F928F9373
:102A90008D811F928F938C811F928F938B811F92B8
:102AA0008F938A811F928F9388811F928F938DEAD3
:102AB00091E09F938F9383EE99E09F938F930E9471
:102AC0003C3183EE99E00E94641445E050E064EDEF
:102AD00071E00E942F312DB73EB72E5E3F4F0FB6EB
:102AE000F8943EBF0FBE2DBF892B21F481E0809367
:102AF000C60702C01092C6078A81988191110FC043
:102B0000833531F0893331F0873449F482E103C0F1
:102B100080E101C081E1DF91CF910C94A904DF91A4
:102B2000CF9108958091C4079091C5070097F1F067
:102B30008230910530F001979093C5078093C407C8
:102B400008952091B2072F5F2093B2078091C207AA
:102B50009091C30730E043EF50E0481B590B241716
:102B6000350720F01092B2070C946A1408958AED8C
:102B700091E00C9427151F928F938BEE91E09F9319
:102B80008F9383EE99E09F938F930E943C310F9037
:102B90000F900F900F900F900F9083EE99E00C9490
:102BA00064141F928F9381E092E09F938F9383EE42
:102BB00099E09F938F930E943C310F900F900F905C
:102BC0000F900F900F9083EE99E00C946414CF93C4
:102BD000DF93559A5D980E94B62B0E94FE1381E107
:102BE00092E00E94271581E192E00E946414EC01BA
:102BF00042E050E065E172E00E942F31892B49F0FC
:102C000042E050E068E172E0CE010E942F31892B52
:102C1000E9F40E94B71581E192E00E9427158BE14B
:102C200092E00E9427150E94C30281E00E94D11504
:102C300082E292E00E94271582E392E00E9427152B
:102C400082E492E00E9427150E941B2C0E94171418
:102C500081E192E00E9427152FEF80E792E021505A
:102C600080409040E1F700C0000085E592E00E94BE
:102C7000641445E050E064ED71E00E942F31892B2F
:102C800071F484E692E00E94271583E892E00E94A6
:102C9000271583EC92E0DF91CF910C942715DF91FB
:102CA000CF910895CF93DF93EC0188EC92E00E94DE
:102CB0005814CE010E9458148AE093E0DF91CF911E
:102CC0000C946414CF932F9B04C09091D30791115F
:102CD0009BC0C82F87ED92E00E946414FC014181E3
:102CE00080ED840F8A3020F081E08093D10732C0DC
:102CF00082818A3378F5608170E06053710994E6CF
:102D0000969FF001979FF00D112450E04053510918
:102D10009AE0949F9001959F300D11242E0F3F1F34
:102D2000280F311D83E0220F331F8A95E1F72A54C3
:102D3000324030931E0120931D012E3D8DE0380757
:102D400020F481E08093C80705C021313E4010F097
:102D50001092C807C23009F057C080911D019091B0
:102D60001E01833D2FE0920708F58F362FE0920772
:102D7000F8F48D332FE09207E8F4893D2EE09207B6
:102D8000D8F4873A2EE09207C8F485372EE09207F0
:102D9000B8F483342EE09207A8F481312EE0920734
:102DA00098F48F3D9D4090F0CAE011C0CAE50FC075
:102DB000C0E50DC0C6E40BC0CCE309C0C2E307C048
:102DC000C8E205C0CEE103C0C4E101C0C7E0C093C2
:102DD0001C0183EE92E00E9458141F92CF938CE75F
:102DE00091E09F938F9383EE99E09F938F930E943E
:102DF0003C310F900F900F900F900F900F9083EE3B
:102E000099E0CF910C946414CF91089582E00C94D2
:102E10006216CF93DF9380912001882309F460C16B
:102E20005D9915C18091C6078823B1F081E192E0D8
:102E30000E94641442E050E068E172E00E942F3189
:102E4000892B39F482EF92E00E9464141092C60735
:102E500003C081E08093D1078091D1078823C1F01E
:102E600084E690E00E941D14EC0142E050E068E12D
:102E700072E00E942F31892B59F045E050E064ED5B
:102E800071E0CE010E942F31892B11F01092D107F1
:102E900080911B01823029F40E94621683E08093A6
:102EA0001B018091CA07811103C0C8EED3E002C0A4
:102EB000C8EBDBE08091D107811192C08091CE07F1
:102EC0009091CF070E94CB2BC817D90708F088C074
:102ED0000E94BF2B9093CF078093CE078CE093E0A6
:102EE0000E946414FC018081813351F48091CA07EF
:102EF000811118C081E08093CA071092D00712C0D8
:102F0000803369F48091CA07882319F01092CA07A8
:102F100009C08091D0078F5F8093D00703C081E004
:102F20008093D1078091D207811112C080911B013B
:102F3000882371F08091D0078A3550F08091040A7F
:102F4000843021F05D9A84E080931B011092D007B9
:102F500080911B01823018F481E00E9462168091FA
:102F6000CB07811122C080911F0181111EC0809169
:102F7000CC079091CD0701969093CD078093CC0715
:102F800020911B01213031F48630910518F022E0A8
:102F900020931B0120911B01233039F4893B9B4076
:102FA00020F084E080931B015D9A80911F018823AB
:102FB000B9F08091C707843639F41092C707109290
:102FC0001F010E94A2040CC08F5F8093C707843149
:102FD00020F48091CA07813019F484E68093C707F2
:102FE0008091C907882389F18C3011F08231E9F48E
:102FF0008BE193E00E9458148091C907823129F433
:1030000084E393E00E9464140DC080EE92E00E947D
:10301000641480E00E94D11581E00E94D11581E006
:103020000E94BB150E941B2C10C0853171F480E0FA
:103030000E94BB1587E393E00E94641482E392E050
:103040000E9427158CE08093C9070E9492158091F9
:10305000D207811121C00E946D1F8151914071F0F2
:103060000E94CE2180912B01826080932B0181E10F
:1030700091E00E94681F82E090E023C08091CB071E
:1030800081112AC08091040A843031F581E0809357
:10309000D2078093CB0720C00E946D1F81529140C0
:1030A00099F081E08093CB070E94CE2180912B0183
:1030B0008D7F80932B0181E291E00E94681F83E065
:1030C00090E00E94E50408C08091040A843021F059
:1030D0001092D2071092CB07DF91CF910C94351349
:1030E000DF91CF910895853169F190F48C3051F1E1
:1030F00018F48530C9F146C0823121F1833109F0DD
:1031000041C090911B0181E0892780931B0138C049
:10311000883189F058F48631A9F590911F0181E03A
:10312000892780931F010E94A2042AC08A3169F076
:10313000803CE1F027C09091D20781E089278093FD
:10314000D2071EC08093C9071BC09091200181E067
:10315000892780932001811102C06DEB01C061E0DD
:1031600080E290E00E94F1330E941B2C8091CB07FB
:10317000811109C05D9A8AE080931B011092CA07F1
:1031800081E0089580E00895CF938E30910540F559
:10319000FC01E257FF4F0C94CD3088E11EC083E163
:1031A0001CC082E11AC08CE018C085E116C0809175
:1031B0001C01CAE06C2F0E94993090E00E941722F7
:1031C00080911C016C2F0E949930892F90E0CF9143
:1031D0000C94172280EC01C08AE1CF910C947318F3
:1031E000CF9108950FB6F894A895809160008861FA
:1031F00080936000109260000FBE9DE088E10FB6E2
:10320000F894A895809360000FBE90936000089595
:10321000CF9390E080E80FB6F8948093610090938C
:1032200061000FBE0E94B9020E94171D789480E2CF
:1032300090E00E94DD338D3B11F4109220018FEF5E
:103240009091040A8150943041F0EFE3FFE131970F
:10325000F1F700C000008111F3CF8091040A84309F
:1032600019F481E08093D20780912001882329F00E
:103270000E94E7150E94061704C081E291E00E94B7
:10328000681F0E94C01F81E08093D3070E94F2183C
:10329000C1E080911B01823030F10E94E4030E9462
:1032A0006C2C0E94F3038823F1F00E94D802109244
:1032B000CD071092CC070E94F2180E94A42C809196
:1032C0001B01843008F05D98C0931B010CC08091F5
:1032D000040A8430A1F00E94E4030E946C2C0E9436
:1032E000F303811105C080912001882381F307C079
:1032F0008091040A8530B9F70E94941BF4CF809125
:103300001B01843030F6A895823010F40E94C61F4D
:103310000E940917BECF8091E50708958FEF909125
:10332000E800815095FD06C09AE69A95F1F700C035
:103330008111F5CF8091E80085FB882780F991E025
:1033400089270895CF93DF9300D01F92CDB7DEB7C2
:103350002091040A2430B9F423E029839B838A83D3
:103360002093E9000E948E1981110DC040E050E0C9
:1033700063E070E0CE0101960E94A91B8091E800F5
:103380008E778093E8000F900F900F90DF91CF9190
:103390000895CF93DF9300D01F92CDB7DEB7209171
:1033A000040A2430C1F422E029839B838A8383E0CA
:1033B0008093E9000E948E1981110DC040E050E019
:1033C00063E070E0CE0101960E94A91B8091E800A5
:1033D0008E778093E8000F900F900F90DF91CF9140
:1033E0000895CF93DF932091040A2430A1F4EC01D7
:1033F00082E08093E9000E948E1981110CC040E0A8
:1034000050E065E070E0CE010E94A91B8091E800C9
:103410008E778093E800DF91CF910895CF93DF936B
:10342000EC019091040A9430D1F580912B0188230E
:10343000D9F08091ED078823B9F09093E9008FEFE0
:103440009091E800815095FD06C095E19A95F1F7BD
:1034500000008111F5CF8091E80085FF20C040E099
:1034600050E060E170E00BC081E08093E9000E94D1
:103470008E19811114C040E050E068E070E0CE0188
:103480000E94A91B8091E8008E778093E80080E17C
:10349000FE01A5EDB7E001900D928A95E1F7DF916D
:1034A000CF9108958091030A811109C00E94BC1C2C
:1034B0000E94171D8091E20084608093E2000895CD
:1034C0001092030A08950895089542E061EC81E0A6
:1034D0000E94571C42E061EC82E00E94571C42E0CF
:1034E00061EC83E00E94571C42E161EC84E00C94A3
:1034F000571C8091060A833009F455C030F481309E
:1035000071F0823009F48EC008958A3009F47AC0CF
:103510008B3009F460C0893009F09CC020C08091D4
:10352000050A813A09F096C08091E800877F809370
:10353000E8008091090A90910A0A892B21F460E140
:1035400085ED97E003C060E080E090E070E00E94CD
:10355000F41B8091E8008B778093E80008958091B8
:10356000050A813209F076C08091090A90910A0A11
:10357000009719F0039709F06DC08091E800877FEC
:103580008093E8008091E80082FD05C08091040AE4
:103590008111F8CF5FC08091F1008093E5078091A1
:1035A000E8008B7753C08091050A813A09F052C038
:1035B0008091090A90910A0A892B09F04BC08091E9
:1035C000E800877F8093E8008091E80080FFFCCFCF
:1035D00080912B0136C08091050A8132D9F5809106
:1035E000090A90910A0A892BA9F58091E800877F42
:1035F0008093E8000E946B1C8091070A80932B0146
:103600000C94CE218091050A813221F58091E80049
:10361000877F8093E8000E946B1C8091080A80934A
:10362000E60708958091050A813AA1F48091E800A7
:10363000877F8093E8008091E80080FFFCCF809135
:10364000E6078093F1008091E8008E778093E80090
:103650000C946B1C08958091E5078093D407109219
:10366000E50780E00E94B6040E94E1200C94CE2180
:103670000C942B1B0E94A42C8091D4078093E50707
:1036800008950C943A1B292F332723303105C1F0BC
:103690005CF42130310579F022303105E9F58DE611
:1036A00090E020EA33E03CC021323105C1F0223203
:1036B000310511F131C082E190E02DE034E030C0FD
:1036C00099278330910540F5FC01EE0FFF1FE05A6A
:1036D000FC4F20813181FC01E35AFC4F1AC0643059
:1036E000D8F4E62FF0E0EE0FFF1FEB5AFC4F2081DD
:1036F000318189E090E014C0643070F470E0FB0127
:10370000EE0FFF1FE35BFC4F20813181FB01E75B84
:10371000FC4F808190E004C080E090E020E030E049
:10372000FA0131832083089519BC82E089BD09B470
:1037300000FEFDCF8091D8008F7D8093D8008091CE
:10374000E00082608093E0008091E00081FDFCCF8A
:103750000895CF92DF92EF92FF920F931F93CF9332
:10376000DF93EC018B016A010E948A1C811133C036
:10377000C114D10439F0F60180819181081B190B25
:10378000C80FD91FE12CF12C0115110519F18091F9
:10379000E80085FD16C08091E8008E778093E800F0
:1037A000C114D10449F0F60180819181E80EF91E1F
:1037B000F182E08285E00FC00E948A1C882321F3F9
:1037C0000AC089918093F10001501109FFEFEF1AAF
:1037D000FF0ADACF80E0DF91CF911F910F91FF9028
:1037E000EF90DF90CF90089520910B0A30910C0A52
:1037F0002617370748F06115710539F42091E80064
:103800002E772093E80001C0B90140E061157105F1
:10381000A9F12091040A222309F443C0253009F4B8
:1038200042C02091E80023FD40C02091E80022FD25
:1038300032C02091E80020FFE9CF4091F3002091B1
:10384000F20030E0342BFC01CF016115710559F015
:103850002830310540F481918093F1006150710965
:103860002F5F3F4FF1CF41E02830310509F040E0B4
:103870002091E8002E772093E800C8CF4111C9CFEE
:103880000AC08091040A882361F0853061F080913C
:10389000E80083FD0AC08091E80082FFF2CF80E05B
:1038A000089582E0089583E0089581E008958F707F
:1038B0008093E900EBEEF0E0808181608083EDEEA3
:1038C000F0E010826093EC0040838091EE00881F4E
:1038D0008827881F08958091050A87FF11C080916D
:1038E000E80082FD05C08091040A8111F8CF11C063
:1038F0008091E8008B770BC08091040A882349F0FF
:103900008091E80080FFF8CF8091E8008E77809367
:10391000E80008952091E4003091E50095E640919B
:10392000EC00842F817040FF22C08091E80080FD70
:103930001CC08091040A882391F0853091F0809119
:10394000EB0085FD10C04091E4005091E500421766
:10395000530729F39A01915011F784E0089582E00A
:10396000089583E0089581E0089580E008954091EE
:10397000E80042FFDECF08950E94281D0E94301DFE
:10398000E0EEF0E0808181608083E8EDF0E080810E
:103990008F77808319BCA7EDB0E08C918E7F8C93DC
:1039A00080818F7E80831092030A08950F931F9366
:1039B000CF93DF930E94281D0E94301DC8EDD0E0F8
:1039C00088818F77888388818068888388818F7DCC
:1039D000888319BC1092040A1092010A1092020AFC
:1039E00000EE10E0F80180818B7F80838881816008
:1039F000888342E060E080E00E94571CE1EEF0E046
:103A000080818E7F8083E2EEF0E080818160808320
:103A1000808188608083F80180818E7F80838881A7
:103A200080618883DF91CF911F910F910895E8ED18
:103A3000F0E080818F7E8083E7EDF0E0808181601F
:103A4000808384E082BF81E08093030A0C94D61CBB
:103A5000E8EDF0E080818E7F80831092E20008958F
:103A60001092DA001092E10008951F920F920FB6A3
:103A70000F9211242F933F934F935F936F937F93F4
:103A80008F939F93AF93BF93EF93FF938091E10048
:103A900082FF0BC08091E20082FF07C08091E100AD
:103AA0008B7F8093E1000E94641A8091DA0080FF8E
:103AB00022C08091D80080FF1EC08091D307811161
:103AC0000E941B2C8091DA008E7F8093DA00809117
:103AD000D90019BC80FF0BC082E089BD09B400FE8B
:103AE000FDCF81E08093040A0E94521A04C0109214
:103AF000040A0E94601A8091E10080FF19C0809141
:103B0000E20080FF15C08091E2008E7F8093E2008A
:103B10008091E20080618093E2008091D800806211
:103B20008093D80019BC85E08093040A0E94381B5A
:103B30008091E10084FF34C08091E20084FF30C0B6
:103B40008091D30781110E941B2C19BC82E089BD92
:103B500009B400FEFDCF8091D8008F7D8093D800FE
:103B60008091E1008F7E8093E1008091E2008F7E62
:103B70008093E2008091E20081608093E200809176
:103B8000010A882311F084E007C08091E30087FDDB
:103B900002C081E001C083E08093040A0E94411BBF
:103BA0008091E10083FF29C08091E20083FF25C05E
:103BB0008091E100877F8093E10082E08093040A96
:103BC0001092010A8091E1008E7F8093E100809144
:103BD000E2008E7F8093E2008091E200806180931A
:103BE000E20042E060E080E00E94571C8091F0001B
:103BF00088608093F0000E94631AFF91EF91BF915B
:103C0000AF919F918F917F916F915F914F913F9174
:103C10002F910F900FBE0F901F9018951F920F922B
:103C20000FB60F9211242F933F934F935F936F938F
:103C30007F938F939F93AF93BF93CF93DF93EF9334
:103C4000FF93C091E900CF708091EC00D82FD17024
:103C500080FDD0E81092E9008091F000877F80938A
:103C6000F00078940E94521E1092E9008091F000BA
:103C700088608093F000CD2BCF70C093E900FF9156
:103C8000EF91DF91CF91BF91AF919F918F917F91F4
:103C90006F915F914F913F912F910F900FBE0F90B9
:103CA0001F9018951F93CF93DF9300D0CDB7DEB749
:103CB000E5E0FAE088E08E0F9091F10091938E1389
:103CC000FBCF0E94791A8091E80083FFEDC08091BC
:103CD000050A9091060A492F50E04A30510508F034
:103CE000E3C0FA01E456FF4F0C94CD30803881F0E8
:103CF000823809F0D9C08091090A8F708093E90059
:103D00008091EB0085FB882780F91092E90007C0BD
:103D10008091020A882311F082E001C080E0909136
:103D2000E800977F9093E8008093F1001092F100F3
:103D300095C0282F2D7F09F0B7C0882319F0823055
:103D400061F0B2C08091070A813009F0ADC09330B4
:103D500009F080E08093020A2BC08091070A81114C
:103D600027C08091090A8F7009F49EC08093E900F2
:103D70002091EB0020FF1CC0933021F48091EB00D8
:103D8000806214C09091EB0090619093EB0021E071
:103D900030E0A90102C0440F551F8A95E2F7409315
:103DA000EA001092EA008091EB0088608093EB00BB
:103DB0001092E9008091E800877F53C0811174C0A0
:103DC0001091070A1F778091E3008078812B809300
:103DD000E3008091E800877F8093E8000E946B1CDD
:103DE0008091E80080FFFCCF8091E30080688093A1
:103DF000E300111102C082E001C083E08093040A55
:103E000053C08058823008F04FC0AE014F5F5F4F03
:103E10006091090A8091070A9091080A0E94431B49
:103E2000BC01892B09F440C09091E800977F9093E2
:103E3000E80089819A810E94F41B8091E8008B77C9
:103E40008093E80031C0803879F58091E800877F61
:103E50008093E8008091010A8093F1008091E8004E
:103E60008E778093E8000E946B1C1EC081111CC0DD
:103E70009091070A9230C0F48091E800877F809388
:103E8000E8009093010A0E946B1C8091010A811145
:103E900006C08091E30087FD02C081E001C084E09C
:103EA0008093040A0E94651A8091E80083FF0AC08B
:103EB0008091E800877F8093E8008091EB0080622A
:103EC0008093EB000F900F90DF91CF911F91089599
:103ED0009093EC078093EB0708958091EB07909106
:103EE000EC070895E091EB07F091EC07309721F093
:103EF0000190F081E02D099480E00895E091EB07B6
:103F0000F091EC07309721F00280F381E02D0994C5
:103F10000895E091EB07F091EC07309721F00480D1
:103F2000F581E02D099408952091E9073091EA0781
:103F30008217930771F09093EA078093E907E09165
:103F4000EB07F091EC07309721F00680F781E02D28
:103F5000099408952091E7073091E80782179307A5
:103F600071F09093E8078093E707E091EB07F091F9
:103F7000EC07309721F00084F185E02D0994089535
:103F80000E94B62B0E94E7020C945F048F929F92CE
:103F9000AF92BF92CF92DF92EF92FF920F931F9357
:103FA000CF93DF9300D000D01F92CDB7DEB70E9431
:103FB0002D030BE018E0F12C8F2D0E94CE024C0156
:103FC000F801A080B180A826B926A114B10439F463
:103FD000F3940E5F1F4FF4E0FF12EECF39C08091D3
:103FE000DD0881FD0E94D702E12CCC24C394D12CA2
:103FF000C6018A219B21892B21F1E982FA8221E0E5
:10400000C60188219921892B09F420E02B830E9485
:10401000BF2B8160782F9D838C8349815A816B816E
:104020008D810E94E22049815A816B817C818D8142
:104030000E940013F801808191818C259D25918338
:104040008083E394CC0CDD1CFCE0EF12D1CFC0CF19
:104050008FEF89838A831B820E94BF2B8160782F18
:104060009D838C8349815A816B818D810E94E220DE
:104070000E941C130E94CD2D80910A08882379F09C
:1040800080910808909109080E94CB2B8C349105EF
:1040900030F010920A0884EF97E00E948B0A10918A
:1040A000F3070E94721F181709F477C00E94721F4D
:1040B0008093F30784FF5EC08091080890910908FF
:1040C0000E94CB2B8C34910520F01092F2071092B5
:1040D0000D0A4091F20750E0FA01E251F84F809149
:1040E000F307837023E030E0241B350B220F331FCE
:1040F00001C0880F2A95EAF780830E94BF2B909316
:104100000908809308088091F2078F5F8093F20777
:10411000843008F442C020910D0AE22FF0E0EC5008
:10412000F84F9091EF078091EE07892B9091F0075F
:10413000892B9091F107892B80838091F40780343B
:1041400071F4223060F487E490E00E94CB2A0E9450
:104150008E2B87E490E00E940D2B0E948E2B1092F4
:10416000F20780910D0A8F5F80930D0A81E08093A2
:104170000A0813C00F900F900F900F900F90DF91CF
:10418000CF911F910F91FF90EF90DF90CF90BF9054
:10419000AF909F908F900C94B42B0F900F900F9036
:1041A0000F900F90DF91CF911F910F91FF90EF90A3
:1041B000DF90CF90BF90AF909F908F9008950C9418
:1041C000B6040895CF93DF93CDB7DEB72B970FB624
:1041D000F894DEBF0FBECDBF4F83588769877A87BB
:1041E0008B87DE01119686E0FD0111928A95E9F731
:1041F00085E0FE01379601900D928A95E1F749819D
:104200005A816B817C818D819E810E9402282B9630
:104210000FB6F894DEBF0FBECDBFDF91CF910895EA
:10422000CF93882309F46CC0803B29F48CE092E0A2
:10423000CF910C94A628C82F8CEF8C0F813A20F0D8
:1042400080E58C0F8E3248F48C2F0E94012F811153
:1042500057C08C2F0E94CB2A0CC080E28C0F883074
:1042600058F4C77081E001C0880FCA95EAF70E9430
:10427000542BCF910C948E2B8BE58C0F833078F4DC
:10428000C53A29F0C63A31F083E890E005C081E8EC
:1042900090E002C082E890E0CF910C94941F88E5F2
:1042A0008C0F873168F5C83A89F0C93A91F0CA3A5B
:1042B00099F0CB3AA1F0CC3AA9F0CD3AB1F0CE3A90
:1042C000B9F0CF3AC1F080E090E017C082EE90E004
:1042D00014C089EE90E011C08AEE90E00EC085EB2C
:1042E00090E00BC086EB90E008C083EB90E005C047
:1042F00084EB90E002C087EB90E0CF910C94AA1F72
:10430000CF910895882349F19CEF980F913A20F0BE
:1043100090E5980F9E3218F40E940D2B0DC090E28C
:10432000980F983058F4877091E001C0990F8A95E2
:10433000EAF7892F0E945A2B0C948E2B9BE5980F3D
:10434000933020F480E090E00C94941F885A8731D9
:1043500020F480E090E00C94AA1F0895882321F0B7
:104360000E94542B0C948E2B0895882321F00E94D8
:104370005A2B0C948E2B08950E94742B0E94432B71
:104380000E948E2B0E94AB2E0E94C22D80E090E0F6
:104390000E94941F80E090E00C94AA1F0E94642B5E
:1043A0000C94BC21CF93DF9300D000D01F92CDB7E7
:1043B000DEB70E945E2A292F22952F7030E02C3024
:1043C00031054CF42A303105C4F422503109223031
:1043D000310540F023C02C303105D1F02F303105AC
:1043E000B9F01CC0853A28F48430B0F4823028F447
:1043F00013C090E2980F983078F0883E30F4803EF9
:1044000058F48450813A50F407C0803F39F404C016
:1044100093FB882780F903C081E001C080E00F9002
:104420000F900F900F900F90DF91CF910895CF9341
:10443000882329F08A3020F4CDE1C80F01C0C7E2FB
:104440008C2F0E9410218C2FCF910C948221CF921F
:10445000DF92EF92FF920F931F93CF93DF93CDB72D
:10446000DEB727970FB6F894DEBF0FBECDBF25E0AD
:10447000FC01DE01119601900D922A95E1F7FC01F5
:104480000281438154813581232F22952F706981C8
:104490007A814115510509F424C37F3F19F46F3F18
:1044A00009F41FC36C0133FD0EC00B83742F5D83B1
:1044B0004C8349815A81602F8D812F830E945E2A0F
:1044C000182F2F8102C019819A812F839E830E9409
:1044D0005D2A0E944D299E81E92FE295EF70F0E060
:1044E000EA55FF4F2F810C94CD30892F807F9F702C
:1044F000F92E882319F0F29440EFF422002349F0BA
:10450000FF2009F476C28F2D0E94672B0E948E2B0C
:1045100070C2812F0E948221FF2009F4E2C28F2DF8
:104520000E946D2B27960FB6F894DEBF0FBECDBF4D
:10453000DF91CF911F910F91FF90EF90DF90CF907F
:104540000C948E2B892F807F9F70F92E803219F06A
:10455000F29430EFF322112319F0113001F129C048
:104560000023A9F08F2D222349F1213039F5279618
:104570000FB6F894DEBF0FBECDBFDF91CF911F9174
:104580000F91FF90EF90DF90CF900C94772B222328
:1045900019F0213009F4A5C20E947A2B2CC0002307
:1045A000E9F0233008F09DC20E94512B8F2129F0A1
:1045B00022C00023F1F0211115C08F2D27960FB6D0
:1045C000F894DEBF0FBECDBFDF91CF911F910F9149
:1045D000FF90EF90DF90CF900C94AE21223008F046
:1045E00080C209C0F601858180FF03C28F70858378
:1045F000E4CF211129C28F2D99C1292F2695269507
:10460000237030E02115310521F021303105C1F052
:1046100068C2002319F0812F937002C080E090E0FF
:1046200027960FB6F894DEBF0FBECDBFDF91CF91B6
:104630001F910F91FF90EF90DF90CF900C94AA1FE5
:10464000002349F1E12E9370F92EE114F3E0FF0607
:1046500004F18AE192E00E94A6282FEF80E792E021
:10466000215080409040E1F700C00000A895C701AC
:10467000807F992724E0969587952A95E1F70E94F7
:104680001722C7018F7099270E94172285E192E0B7
:1046900004C2C70102C080E090E027960FB6F894EC
:1046A000DEBF0FBECDBFDF91CF911F910F91FF9065
:1046B000EF90DF90CF900C94941F812F002381F016
:1046C0000E94012D0E94C22D163408F00AC2E12F6B
:1046D000F0E0EC5EF74F81E080838093130801C225
:1046E0000E944E2D0E94C22D163408F0FAC1E12F0F
:1046F000F0E0EC5EF74F108210921308F2C1892FA0
:10470000837009F079C00111ECC1812F82958695E3
:104710008770880F880F212F2F70C22ED12CE12C8B
:10472000F12C082E04C0CC0CDD1CEE1CFF1C0A94DE
:10473000D2F714FF12C04FE050E060E070E004C018
:10474000440F551F661F771F8A95D2F78A019B0178
:10475000009510952095309503C000E010E0980179
:10476000969596959370492F50E0C901B801423053
:104770005105D1F04330510559F16C297D298E291D
:104780009F294130510541F127960FB6F894DEBFBD
:104790000FBECDBFDF91CF911F910F91FF90EF9092
:1047A000DF90CF900C9472296C297D298E299F2946
:1047B00027960FB6F894DEBF0FBECDBFDF91CF9125
:1047C0001F910F91FF90EF90DF90CF900C948C2968
:1047D0000E947229C701B60127960FB6F894DEBF72
:1047E0000FBECDBFDF91CF911F910F91FF90EF9042
:1047F000DF90CF900C945829002319F0892F8170F5
:1048000001C08695882309F46CC1812F8295869515
:104810008770880F880F212F2F70C22ED12CE12C8A
:10482000F12C082E04C0CC0CDD1CEE1CFF1C0A94DD
:10483000D2F714FF12C04FE050E060E070E004C017
:10484000440F551F661F771F8A95D2F78A019B0177
:10485000009510952095309503C000E010E0980178
:10486000969596959370492F50E0C901B801423052
:104870005105D1F04330510559F16C297D298E291C
:104880009F294130510541F127960FB6F894DEBFBC
:104890000FBECDBFDF91CF911F910F91FF90EF9091
:1048A000DF90CF900C94392A6C297D298E299F297D
:1048B00027960FB6F894DEBF0FBECDBFDF91CF9124
:1048C0001F910F91FF90EF90DF90CF900C944B2AA7
:1048D0000E94392AC701B60127960FB6F894DEBFA9
:1048E0000FBECDBFDF91CF911F910F91FF90EF9041
:1048F000DF90CF900C94272A103F41F118F4103E1E
:1049000048F46DC0123F09F441C0D8F1133F09F4D7
:1049100042C065C01F70892F8F71002321F00E9453
:10492000C029812F4BCE0E94E129812F27960FB6F7
:10493000F894DEBF0FBECDBFDF91CF911F910F91D5
:10494000FF90EF90DF90CF900C94B5210023A9F059
:10495000223008F0C6C0892F8F7127960FB6F894C1
:10496000DEBF0FBECDBFDF91CF911F910F91FF90A2
:10497000EF90DF90CF900C94062A233008F0B1C05E
:10498000EACF002329F0892F8F7146C00023D9F385
:10499000892F8F716CC0002391F0892F8F7127961A
:1049A0000FB6F894DEBF0FBECDBFDF91CF911F9140
:1049B0000F91FF90EF90DF90CF900C94AB2927964A
:1049C0000FB6F894DEBF0FBECDBFDF91CF911F9120
:1049D0000F91FF90EF90DF90CF900C94A6290023C9
:1049E00059F12223B9F093FF04C0F601858180FDBF
:1049F00011C0812F27960FB6F894DEBF0FBECDBF32
:104A0000DF91CF911F910F91FF90EF90DF90CF90AA
:104A10000C941021892F877027960FB6F894DEBF6B
:104A20000FBECDBFDF91CF911F910F91FF90EF90FF
:104A3000DF90CF900C94C0292223B9F093FF04C0DB
:104A4000F601858180FD11C0812F27960FB6F8945D
:104A5000DEBF0FBECDBFDF91CF911F910F91FF90B1
:104A6000EF90DF90CF900C948221892F877027964A
:104A70000FB6F894DEBF0FBECDBFDF91CF911F916F
:104A80000F91FF90EF90DF90CF900C94E129492F88
:104A90004F70612FC6010E94470227960FB6F89407
:104AA000DEBF0FBECDBFDF91CF911F910F91FF9061
:104AB000EF90DF90CF900C94A628492F4F70612F74
:104AC000C60127960FB6F894DEBF0FBECDBFDF91AB
:104AD000CF911F910F91FF90EF90DF90CF900C94AA
:104AE000890127960FB6F894DEBF0FBECDBFDF91C8
:104AF000CF911F910F91FF90EF90DF90CF9008958D
:104B0000CF93DF9300D000D01F92CDB7DEB70F90C8
:104B10000F900F900F900F90DF91CF910895CF934A
:104B2000DF9300D000D000D0CDB7DEB726960FB609
:104B3000F894DEBF0FBECDBFDF91CF9108951F93D4
:104B4000CF93DF93C0915A0816E080915B08C81795
:104B500099F0D0E01C9FF0011D9FF00D1124E45A44
:104B6000F74F4081518162817381848195810E94D8
:104B70008F252196C770E9CFDF91CF911F910895BE
:104B800040918C0850918D0860918E0870918F082B
:104B900080919008909191080C948F2580919108B4
:104BA00082958F7009F054C080918E08882309F493
:104BB0004FC080915A08A0915B0860918C08709159
:104BC0008D0840918F0850919008B6E08A1709F43B
:104BD0003FC090E041155105C1F17F3F11F46F3F97
:104BE000A1F1B89FF001B99FF00D1124E45AF74FDD
:104BF000218172132AC02081621327C022812111D2
:104C000024C0238134812417350710F42150310941
:104C1000241B350B283C3105C0F4209191082F70DE
:104C200020612093910826E0289FF001299FF00D34
:104C30001124EF59F74F80818F70806180838CE859
:104C400098E00E9427220C949F2501968770BECF82
:104C50000895BF92CF92DF92EF92FF920F931F932E
:104C6000CF93DF93CDB7DEB761970FB6F894DEBF71
:104C70000FBECDBF7C0185E0F701DE011D960190DE
:104C80000D928A95E1F7D7014C9111965C9111979D
:104C90001296DC90129713960D911C9114973091F7
:104CA0008C0860918D0880918F08909190080097F2
:104CB00009F477C16F3F19F43F3F09F472C1B09016
:104CC0008E08BB2009F4C5C0209191080817190768
:104CD00028F0F801E81BF90BCF0104C080959095EE
:104CE000800F911FCC24C394883C910580F0C12C87
:104CF000207F09F0CCC0702F198B088B6D2D89890E
:104D00000E9480258CE898E00E942722B6C0822F5E
:104D1000807F09F047C0651314C0341312C0D1104E
:104D200010C02F702061209391080E94C0258CE84C
:104D300098E00E94272280919108D70115968C93C4
:104D40002FC00115110519F15F3F11F44F3FF9F024
:104D5000CD2CD1101CC080915A0820915B0836E000
:104D6000821709F45CC090E0389FF001399FF00D84
:104D70001124E45AF74F6181561306C0608146132F
:104D800003C06281611103C001968770E9CFCD2C09
:104D9000DD2009F426C180919108816080939108FB
:104DA000C12C1FC1651308C0341306C0D11004C044
:104DB00080919108D701C9C04D875E87DF86702F2B
:104DC000198B088B6D2D89890E94D2218823E9F1E6
:104DD000DD20D9F120919108822F82958F7090E08B
:104DE000029774F080918C0890918D0898878F833A
:104DF00019861B870A872C87CE0107960E942722D7
:104E000086E0F701ACE8B8E001900D928A95E1F7F1
:104E10000E94CE250E94C025CC24C394E2C0702FEE
:104E2000198B088B60E089890E945E2A292F2295C0
:104E30002F7030E0223031050CF0C7C09F7009F0B0
:104E4000C1C0805E883008F4CCC0C7010E94272210
:104E5000E3CF0817190708F456C0F801E81BF90B4F
:104E6000CF01883C910508F453C0C12C702F198BD9
:104E7000088B6D2D89890E948025ECE8F8E086E09A
:104E8000DF011D928A95E9F70E94C025AAC065132B
:104E900014C0341312C0D11010C080919108F701D2
:104EA0008583C7010E94272286E0ECE8F8E0DF0155
:104EB0001D928A95E9F7CB2C94C04D875E87DF86DB
:104EC000702F198B088B6D2D89890E94D221882320
:104ED00009F4BBCFDD2009F4B8CF20919108822FCF
:104EE00082958F7090E002970CF48ACF80918C08A5
:104EF00090918D089A8389831B821D830C832E8356
:104F0000CE0101967BCF80959095800F911FA9CF00
:104F1000CD2CDD2009F499CF65132EC034132CC09D
:104F20002091910820FD1FC0822F82958F70D9F0AB
:104F3000D70115962C9315978F3049F08F5F982FD6
:104F40009295907F822F8F70892B15968C93C70135
:104F50000E94272286E0F701ACE8B8E001900D92AC
:104F60008A95E1F791CF86E0F701ACE8B8E00190CF
:104F70000D928A95E1F735C04D875E87DF86702FE9
:104F8000198B088B6D2D89890E94D221811138CF10
:104F900080919108816080939108C7010E94272227
:104FA00020C0DD2009F451CF4D875E87DF86702F4A
:104FB000198B088B6D2D89890E94D221882309F4D1
:104FC00044CF1ECF81113DCF0CC0243031050CF0F1
:104FD0003CCF9F7009F435CFF7019581907F09F0A0
:104FE00030CF8C2D61960FB6F894DEBF0FBECDBFCB
:104FF000DF91CF911F910F91FF90EF90DF90CF90B5
:10500000BF9008951F93CF93DF93CDB7DEB72C9752
:105010000FB6F894DEBF0FBECDBF4F8358876987A8
:105020007A878B879C87CE0107960E942926882342
:1050300069F08F8198852A853B85232BF1F19F3F6D
:1050400009F063C08F3F09F060C037C086E0FE0101
:105050003796DE01119601900D928A95E1F76F81E6
:105060007885EA85FB85309741F17F3F11F46F3FEA
:1050700021F120915B0830E0C901019687709927E2
:1050800040915A0850E08417950709F447C0698396
:105090007A83FD83EC8396E0929FD001939FB00DBD
:1050A0001124A45AB74FFE01319601900D929A95A2
:1050B000E1F780935B080E949F2516E080915A08D3
:1050C00090915B088917C1F1189FC0011124845A7F
:1050D000974F0E942926882379F1E0915A081E9F54
:1050E000F0011124E45AF74F4081518162817381AC
:1050F000848195810E948F2580915A0890E00196C5
:105100008770992780935A08D9CF4F815885698530
:105110007A858B859C850E948F25CFCF0E94CE21DA
:1051200010925B0810925A08ECE8F8E086E0DF0184
:105130001D928A95E9F7C1CF2C960FB6F894DEBF81
:105140000FBECDBFDF91CF911F910895DF92EF92F7
:10515000FF920F931F93CF93DF93FC01892B09F4E8
:105160008AC0E12CF12CDD24D394EF0121968491A7
:10517000853709F461C058F4843708F04EC0843094
:1051800008F06AC08130D1F0823071F174C0883784
:1051900009F45DC050F4863709F455C0873709F02B
:1051A0006AC08E2D0E94612B54C09CE7980F9037E7
:1051B00008F061C08F770E94822150C08F010E5F7E
:1051C0001F4FFE01849190E2980F983050F4877041
:1051D000FD2D01C0FF0F8A95EAF78F2F0E94672BE4
:1051E00014C00E94102113C08F010E5F1F4FFE01DB
:1051F000C49180E28C0F883060F4C7708D2D01C09F
:10520000880FCA95EAF70E946D2B0E948E2BE80149
:1052100025C08C2F0E948221FACF9F012E5F3F4F25
:10522000FE01C491CC2369F08FEC97E00197F1F770
:1052300000C00000C150F6CF9F012E5F3F4FFE011E
:10524000F490E9010BC00E94512BE82E07C00E9488
:10525000642B0E948E2B02C00E9410218F2D882368
:1052600041F0EFECF7E03197F1F700C0000081501A
:10527000F6CFFE017ACFDF91CF911F910F91FF9072
:10528000EF90DF9008956093C2087093C3088093F5
:10529000C4089093C5080C94C90408956093C60887
:1052A0007093C7088093C8089093C9080C94DD04D4
:1052B0000F931F930091C6081091C7082091C8084A
:1052C0003091C908602B712B822B932B6093C608F9
:1052D0007093C7088093C8089093C9081F910F91D5
:1052E0000C94DD040F931F930091C6081091C7081A
:1052F0002091C8083091C908602371238223932329
:105300006093C6087093C7088093C8089093C90833
:105310001F910F910C94DD040F931F930091C60809
:105320001091C7082091C8083091C90860277127DB
:10533000822793276093C6087093C7088093C80894
:105340009093C9081F910F910C94DD0460E070E008
:10535000CB010C9443290F931F9341E050E060E090
:1053600070E08A019B0104C0000F111F221F331F30
:105370008A95D2F7C901B8011F910F910C94432966
:105380000F931F9341E050E060E070E004C0440FD1
:10539000551F661F771F8A95D2F78091C20890919A
:1053A000C308A091C408B091C5088A019B01082BCD
:1053B000192B2A2B3B2BC901B8011F910F910C947B
:1053C00043290F931F9341E050E060E070E004C078
:1053D000440F551F661F771F8A95D2F74095509549
:1053E000609570958091C2089091C308A091C408FF
:1053F000B091C5088A019B01082319232A233B2366
:10540000C901B8011F910F910C9443290F931F9369
:1054100041E050E060E070E004C0440F551F661F9B
:10542000771F8A95D2F78091C2089091C308A09106
:10543000C408B091C5088A019B01082719272A27AB
:105440003B27C901B8011F910F910C9443290F9379
:105450001F930091C2081091C3082091C408309195
:10546000C508602B712B822B932B1F910F910C94ED
:1054700043290F931F930091C2081091C3082091F4
:10548000C4083091C50860237123822393231F91A0
:105490000F910C9443290F931F930091C208109110
:1054A000C3082091C4083091C5086027712782275E
:1054B00093271F910F910C94432908958F929F92E7
:1054C000AF92BF92DF92EF92FF920F931F93CF9311
:1054D000DF9300D000D01F92CDB7DEB78A016623DC
:1054E000C9F18090C6089090C708A090C808B090F5
:1054F000C9088091C2089091C308A091C408B091D6
:10550000C508882A992AAA2ABB2A8FE1E82EF12CFD
:10551000D501C4010E2C04C0B695A7959795879523
:105520000A94D2F780FF07C0DE2CB8018E2D0E94AE
:105530005301019729F481E0E81AF10848F7D12CCA
:105540008CE0189FF0011124E00FF11DEE56F74F8B
:10555000D08209C08CE0189FF0011124E40FF11DE6
:10556000EE56F74FD08009831A8369817A818D2D99
:105570000E9453010F900F900F900F900F90DF91AA
:10558000CF911F910F91FF90EF90DF90BF90AF9060
:105590009F908F90089590912B01913021F49091DC
:1055A000ED07911109C020912C0130912D01F901D5
:1055B00032969FEF40E01FC0982F9695969596954E
:1055C0009F3050F5E0912C01F0912D01E90FF11D74
:1055D000877021E030E0A90102C0440F551F8A9571
:1055E000E2F7CA019181892B818308959F3F39F0A9
:1055F0004F5F4E3041F051915813F8CF0DC051110B
:10560000F7CF942FF5CF9F3F39F0F901E90FF11D46
:1056100097FDFA9582830895089590912B0191301A
:1056200021F49091ED07911109C020912C01309146
:105630002D01F9013296205F3F4F1FC0982F96959C
:10564000969596959F30F0F4E0912C01F0912D0104
:10565000E90FF11D877021E030E0A90102C0440F7D
:10566000551F8A95E2F7CA0180959181892381832C
:1056700008953196E217F30729F090819813F9CF36
:105680001082F7CF089581E090E0E0912C01F09135
:105690002D01E80FF91F1082019680319105A9F7BD
:1056A00008958091DC0808959091DC08892B8093FF
:1056B000DC08089580959091DC0889238093DC08AC
:1056C00008958093DC0808951092DC080895909165
:1056D000DB08892B8093DB08089580959091DB0887
:1056E00089238093DB0808951092DB080895809346
:1056F000CA0808951092CA08089580912C019091CB
:105700002D01FC0131969C01205F3F4F80E091917B
:1057100091118F5FE217F307D1F70895E0912C0103
:10572000F0912D018091DC088083E0912C01F091B3
:105730002D0190818091DB08892B80838091CA089C
:10574000882361F0E0912C01F0912D019081892B4B
:1057500080830E947D2B81111092CA0880912C01B8
:1057600090912D010C947E1F0C94DF2082E084BD6B
:1057700093E095BD9DE797BD80936E0008952FB788
:10578000F8948091DE089091DF08A091E008B09134
:10579000E1082FBF0895CF92DF92EF92FF920F930F
:1057A0001F932FB7F8944091DE085091DF08609165
:1057B000E0087091E1082FBF6A017B01EE24FF240D
:1057C0008C0120E030E0C016D106E206F30610F4AA
:1057D000415051099A01281B390BC9011F910F91A2
:1057E000FF90EF90DF90CF90089578941F920F92E2
:1057F0000FB60F9211248F939F93AF93BF93809115
:10580000DE089091DF08A091E008B091E1080196D0
:10581000A11DB11D8093DE089093DF08A093E008DE
:10582000B093E108BF91AF919F918F910F900FBE00
:105830000F901F90189580911B01823050F40E94A8
:10584000CE218FE19EE40197F1F700C000000E9495
:10585000BC1C8091040A843059F09BE088E10FB6AB
:10586000F894A895809360000FBE909360000AC0E2
:105870009FE088E10FB6F894A895809360000FBE72
:1058800090936000FFCF1F920F920FB60F921124DA
:105890008F939F93AF93BF938091E208813099F4E7
:1058A0008091DE089091DF08A091E008B091E108B6
:1058B0008096A11DB11D8093DE089093DF08A09310
:1058C000E008B093E108BF91AF919F918F910F9045
:1058D0000FBE0F901F9018958091040A843009F430
:1058E00032C00FB6F894A8958091600088618093CB
:1058F0006000109260000FBE81E08093E20821E416
:1059000088E190E00FB6F894A895809360000FBEF0
:10591000209360000E94F81283B7817F846083BF68
:1059200083B7816083BF7894889583B78E7F83BF68
:105930000FB6F894A895809160008861809360000C
:10594000109260000FBE08950C94FA126091E7085F
:10595000662319F0809131010BC04091E80844237F
:10596000F9F0909130016091310185E0491720F004
:10597000689FB00111240DC0689F90011124429FBF
:10598000F001439FF00D1124692F70E0CF010E94B8
:10599000B9306038710540F46115710539F002C005
:1059A00065E070E0862F08958FE7089581E00895FF
:1059B0008091E70881111FC08091E8088823F1F0E9
:1059C00020912E0160912F01821710F070E007C026
:1059D000689FC0011124622F70E00E94B9306038C6
:1059E000710528F46115710521F0862F08958FE760
:1059F000089581E0089560E070E0F4CF61E070E028
:105A0000F1CF803F11F48FEF03C0813F21F481E09B
:105A10008093EB080895823F11F48FEF03C0833F1A
:105A200021F481E08093EA080895893F11F481E030
:105A300003C08A3F21F48FEF8093EC0808958B3FD9
:105A400011F48FEF03C08C3F21F481E08093ED08C7
:105A500008959CE0980F953078F421E030E0A9019A
:105A600002C0440F551F9A95E2F7CA019091E908C8
:105A7000892B8093E90808958D3F78F08D5F21E0B0
:105A800030E0A90102C0440F551F8A95E2F7CA0110
:105A90009091E708892B8093E7080895803F39F4B7
:105AA0009091EB0897FF39C01092EB085CC0813FE2
:105AB00029F49091EB081916BCF32FC0823F39F4FA
:105AC0009091EA0897FF29C01092EA084CC0833FE2
:105AD00029F49091EA081916BCF31FC0893F39F4E4
